:100000000C949B040C94CC040C94CC040C94CC0461
:100010000C94CC040C94CC040C94CC040C94CC0420
:100020000C94CC040C94F0220C94F0220C94F0224A
:100030000C94CC040C94CC040C94CC040C94CC0400
:100040000C94CC040C94CC040C94CC040C94CC04F0
:100050000C94CC040C94CC040C94CC040C948E2200
:100060000C94CC040C9452220C9428220C94CC04B2
:100070000C94CC040C94CC040C94CC040C94CC04C0
:100080000C94CC040C94CC040C94CC040C94CC04B0
:100090000C94CC040C94CC040C94CC040C94FA2254
:1000A0000C94CC040C94CC040C94CC040C94CC0490
:1000B0000C94CC040C94CC040C94CC040C94CC0480
:1000C0000C94CC040C94CC040C94CC040C94CC0470
:1000D0000C94CC040C94CC040C94CC040C94CC0460
:1000E0000C94CC040C9429240C94600B0C942113D4
:1000F0000C94D91E0C948C130C94E6240C94AF151C
:100100000C94BC060C944F240C94E1240C947516AA
:100110000C947B160C947E060C948F240C94F304A0
:100120000C948B170C9484130C94E9050C946617AB
:100130000C9472060C9478160C94E0160C94CD0670
:100140000C94430A0C9420170C941F1F0C944F0E10
:100150000C94EA230C9481150C94AC240C94B81ED6
:100160000C945C130C9480120C940C180C94B41620
:100170000C949E060C94BA170C9435240C94CE045F
:100180000C9485150C94B1110C94010E0C943C0E3A
:100190000C94FD230C94DB240C9441240C946F16D6
:1001A0000C940C1F0C94B6100C942E0D0C94B606E7
:1001B0000C946A0C0C943C180C947D160C942F151E
:1001C0000C9468170C94F1150C9469150C94DF04C9
:1001D0000C9477170C9431150C94F31E0C9427167D
:1001E0000C9477240C9488060C947E150C9423248C
:1001F0000C94271F0C94C2060C9430050C94CE1658
:100200000C946E240C9472160C9411120C94980693
:100210000C94C1240C94A8240C94500E0C946C13D0
:100220000C94DC090C946B240C9488150C947D0DB3
:100230000C94F3150C94310E0C94250A0C94E922BD
:100240000C947C160C949D120C94B0060C946517BB
:100250000C94DF0C0C94AA060C9478130C94D1091E
:100260000C94C8080C940D160C9493160C947806F4
:100270000C9492060C9400200C94E3230C94F50B40
:100280000C947A050C9484060C94F4140C945B136F
:100290000C94FB160C94A4060C9467170C948D1305
:1002A0000C9401050C9463160C948C060C941C1F82
:1002B0000C94C8060C94E7120C942F240000000044
:1002C000003E5B4F5B3E3E6B4F6B3E1C3E7C3E1CDC
:1002D000183C7E3C181C577D571C1C5E7F5E1C0022
:1002E000183C1800FFE7C3E7FF0018241800FFE7D9
:1002F000DBE7FF30483A060E2629792926407F059C
:100300000507407F05253F5A3CE73C5A7F3E1C1CB1
:1003100008081C1C3E7F14227F22145F5F005F5F71
:1003200006097F017F006689956A6060606060945D
:10033000A2FFA29408047E040810207E2010080862
:100340002A1C08081C2A08081E101010100C1E0C6D
:100350001E0C30383E3830060E3E0E0600000000FF
:100360000000005F00000007000700147F147F14E6
:10037000242A7F2A1223130864623649562050002B
:1003800008070300001C2241000041221C002A1C17
:100390007F1C2A08083E0808008070300008080802
:1003A0000808000060600020100804023E51494522
:1003B0003E00427F400072494949462141494D3340
:1003C0001814127F1027454545393C4A49493141A7
:1003D000211109073649494936464949291E000075
:1003E00014000000403400000008142241141414CA
:1003F0001414004122140802015909063E415D59B6
:100400004E7C1211127C7F494949363E41414122BE
:100410007F4141413E7F494949417F090909013EE8
:10042000414151737F0808087F00417F410020400F
:10043000413F017F081422417F404040407F021C21
:10044000027F7F0408107F3E4141413E7F09090938
:10045000063E4151215E7F09192946264949493204
:1004600003017F01033F4040403F1F2040201F3FCA
:100470004038403F6314081463030478040361594F
:10048000494D43007F414141020408102000414191
:10049000417F04020102044040404040000307083D
:1004A0000020545478407F28444438384444442839
:1004B000384444287F385454541800087E090218E0
:1004C000A4A49C787F0804047800447D4000204068
:1004D000403D007F1028440000417F40007C0478AC
:1004E00004787C080404783844444438FC182424F4
:1004F0001818242418FC7C08040408485454542474
:1005000004043F44243C4040207C1C2040201C3CF0
:100510004030403C44281028444C9090907C4464E7
:10052000544C44000836410000007700000041367A
:10053000080002010204023C2623263C1EA1A16100
:10054000123A4040207A3854545559215555794132
:100550002254547842215554784020545579400C07
:100560001E527212395555555939545454593955EA
:100570005454580000457C410002457D420001452D
:100580007C407D1211127DF0282528F07C545545C1
:10059000002054547C547C0A097F4932494949322D
:1005A0003A4444443A324A4848303A4141217A3A3E
:1005B00042402078009DA0A07D3D4242423D3D400A
:1005C00040403D3C24FF2424487E4943662B2FFCB9
:1005D0002F2BFF0929F620C0887E09032054547967
:1005E000410000447D413048484A32384040227A38
:1005F000007A0A0A727D0D19317D2629292F2826B5
:100600002929292630484D402038080808080808BC
:100610000808382F10C8ACBA2F102834FA00007B15
:10062000000008142A142222142A14085500550028
:1006300055AA55AA55AAFF55FF55FF000000FF0017
:10064000101010FF00141414FF001010FF00FF1012
:1006500010F010F0141414FC001414F700FF000044
:10066000FF00FF1414F404FC141417101F10101FC3
:10067000101F1414141F00101010F0000000001FB1
:10068000101010101F10101010F010000000FF10BC
:100690001010101010101010FF10000000FF1400B8
:1006A00000FF00FF00001F10170000FC04F41414EA
:1006B0001710171414F404F40000FF00F7141414B6
:1006C00014141414F700F7141414171410101F1036
:1006D0001F141414F4141010F010F000001F101F59
:1006E0000000001F14000000FC140000F010F010C7
:1006F00010FF10FF141414FF141010101F0000003E
:1007000000F010FFFFFFFFFFF0F0F0F0F0FFFFFF41
:100710000000000000FFFF0F0F0F0F0F3844443898
:1007200044FC4A4A4A347E02020606027E027E02E7
:1007300063554941633844443C04407E201E2006F2
:10074000027E020299A5E7A5991C2A492A1C4C722F
:1007500001724C304A4D4D303048784830BC625AB6
:10076000463D3E494949007E0101017E2A2A2A2A46
:100770002A44445F444440514A444040444A514022
:100780000000FF0103E080FF000008086B6B0836E3
:1007900012362436060F090F060000181800000054
:1007A0001010003040FF0101001F01011E00191D43
:1007B0001712003C3C3C3C0000000000EF030380AB
:1007C00002CF0300C130ED0464031281E803850009
:1007D00078CB05392C003402F70120EA020000C072
:1007E0000123C10110C5023E28C7018636014837E2
:1007F00001003A0155B1020018B603088227F20140
:1008000000260101E00F0F312B0C0E084EF13707C7
:1008100010030E0900E10F000E1403110731C14847
:10082000080F0C31360F11802980000000210024B0
:100830000027002A002D00300033000101000004D1
:100840000107010A0100002200250028002B002ECC
:10085000003100340002010000050108010B010510
:10086000050505070508080808020202020A0A0829
:10087000080404040401010101010101010303034F
:100880000303030303040707070C0C0C0C0C0C0CEC
:100890000C0202020206060606060606060B0B0BF3
:1008A0000B0B0B0B0B01021020200808102040102E
:1008B0002040800201020108040201010204081024
:1008C0002040808040201008040201800402018042
:1008D000402010080402010804020101020408106B
:1008E000204080010204081020408000000A0B0212
:1008F000090C0D0E080703040100000000000000B1
:1009000000000000000000000000000000000000E7
:1009100000000000000000121110000000000000A4
:1009200000000000000000000000000000000000C7
:100930000000E624E92211241FBECFEFD1E2DEBF82
:10094000CDBF00E00CBF14E0A0E0B2E0E8E3F2E5C8
:1009500000E00BBF02C007900D92AE31B107D9F78E
:1009600026E0AEE1B4E001C01D92A635B207E1F782
:1009700014E0CAE9D4E000E006C021970109802F05
:10098000FE010E94EE28C939D10780E00807A9F7C7
:100990000E941F220C940A290C940000FC01938DE4
:1009A000848D981720F4891B990B019708952FE3E4
:1009B00030E0291B3109820F932F911D0895FC010E
:1009C000918D828D981761F0A28DAE0FBF2FB11D52
:1009D0005D968C91928D9F5F9F73928F90E00895AA
:1009E0008FEF9FEF0895FC01918D828D981731F064
:1009F000828DE80FF11D858D90E008958FEF9FEFB8
:100A00000895FC01218D30E0205C3F4F828DA901CB
:100A1000481B5109CA018F7399270895FC01A48DC1
:100A2000A80FB92FB11DA35ABF4F2C91848D90E010
:100A300001968F739078848FA689B7892C93A089AB
:100A4000B1898C91837080648C93938D848D98137D
:100A500008950288F389E02D80818F7D8083F8CF0F
:100A60000F931F93CF93DF93EC0181E0888F9B8DD1
:100A70008C8D9817B1F0062F8B8D90E001968F73B7
:100A80009078182F8C8D81131EC00FB607FCFACFFB
:100A9000E889F989808185FFF5CFCE010E940E0596
:100AA000F1CFE889F989808185FFE5CF9FB7F89478
:100AB000EE89FF896083E889F98980818370806489
:100AC00080839FBF10C0EB8DEC0FFD2FF11DE35A0B
:100AD000FF4F00839FB7F8941B8FEA89FB898081C1
:100AE000806280839FBF81E090E0DF91CF911F9172
:100AF0000F910895CF93DF93EC01888D811104C08D
:100B00000DC00FB607FE0DC0EA89FB89808185FD07
:100B1000F8CFA889B9898C9186FFF3CFDF91CF9167
:100B20000895808185FFF0CFE889F989808185FF6C
:100B3000EBCFCE010E940E05E7CF8FEA95E00E9431
:100B4000010521E0892B09F420E0822F089580E03F
:100B500090E0892B21F00E949D05811125C080E045
:100B600090E0892B41F080E090E0892B21F00E94F9
:100B7000000081111CC080E090E0892B41F080E0F2
:100B800090E0892B21F00E940000811113C080E0C9
:100B900090E0892B41F080E090E0892B21F00E94C9
:100BA000000081110AC008950E940000D8CF0E9461
:100BB0000000E1CF0E940000EACF0E940000F3CFC6
:100BC0000895DC01ED91FC910190F081E02D1995E3
:100BD0000895CF92DF92EF92FF920F931F93CF93DE
:100BE000DF938C01DB01D0E0C0E07A0181E0E81AFC
:100BF000F108452BA1F0F80180819181FC01208151
:100C000031816D01FFEFCF1ADF0A6C91C801F90144
:100C10001995892B21F02196A701D601E6CFCE01A7
:100C2000DF91CF911F910F91FF90EF90DF90CF90C8
:100C3000089508956FEF7FEF81E090E00E94210614
:100C40000895019709F008956F3F7F4FE1F7EFEAAC
:100C5000F5E01382128288EE93E0A0E0B0E0848396
:100C60009583A683B7838CE293E09183808385ECA0
:100C700090E09587848784EC90E09787868780EC66
:100C800090E0918B808B81EC90E0938B828B82EC57
:100C900090E0958B848B86EC90E0978B868B118E01
:100CA000128E138E148ECFCF8150823108F075C012
:100CB000E82FF0E08827E05AF94F8F4F0C94EE2888
:100CC00084068806720678067E06CD068C06920695
:100CD00098069E06A406AA06B006B606CD06BC0671
:100CE000C206C806E0E8F0E080818F77808308952F
:100CF000E0E8F0E080818F7D80830895E0E8F0E017
:100D00008081877F8083089584B58F7784BD08951F
:100D100084B58F7D84BD0895E0EBF0E080818F770E
:100D200080830895E0EBF0E080818F7D80830895DB
:100D3000E0E9F0E080818F7780830895E0E9F0E0DA
:100D400080818F7D80830895E0E9F0E08081877F56
:100D500080830895E0EAF0E080818F7780830895B2
:100D6000E0EAF0E080818F7D80830895E0EAF0E0A2
:100D70008081877F80830895E0E2F1E080818F7732
:100D800080830895E0E2F1E080818F7D8083089583
:100D9000E0E2F1E08081877F808308951F93CF9305
:100DA000DF93282F30E0F901E551F74F8491F901E5
:100DB000EB55F74F1491F901E15AF74FC491CC2349
:100DC000A9F0D62F811116C0EC2FF0E0EE0FFF1F17
:100DD000EB5BF74FA591B4918FB7F894D1110DC08B
:100DE0009C91E12FE095E923EC938FBFDF91CF91A8
:100DF0001F9108950E945406E7CFEC91E12BEC93EC
:100E0000F4CFCF93DF9390E0FC01EB55F74F2491A3
:100E1000815A974FFC018491882319F190E0880F43
:100E2000991FFC01E55DF74FA591B491FC01EB5BC7
:100E3000F74FC591D491662349F06230A9F08FB77E
:100E4000F894EC91E22BEC938FBF0BC09FB7F89412
:100E50008C91E22FE0958E238C938881E823E883A0
:100E60009FBFDF91CF9108959FB7F8943C91822F57
:100E7000809583238C93E881E22BE8839FBFF1CF99
:100E8000789484B5826084BD84B5816084BD85B565
:100E9000826085BD85B5816085BDEEE6F0E080812C
:100EA00081608083E1E8F0E010828081826080834D
:100EB000808181608083E0E8F0E0808181608083D0
:100EC000E1EBF0E0808184608083E0EBF0E0808102
:100ED00081608083E1E9F0E08081826080838081AD
:100EE00081608083E0E9F0E0808181608083E1EAD5
:100EF000F0E0808182608083808181608083E0EA8D
:100F0000F0E0808181608083E1E2F1E080818260B5
:100F10008083808181608083E0E2F1E08081816074
:100F20008083EAE7F0E08081846080838081826052
:100F3000808380818160808380818068808310923B
:100F4000C10008953FB7F8948091AB059091AC052E
:100F5000A091AD05B091AE0526B5A89B05C02F3F69
:100F600019F00196A11DB11D3FBFBA2FA92F982FCF
:100F70008827BC01CD01620F711D811D911D660F77
:100F8000771F881F991F660F771F881F991F089565
:100F90008F929F92AF92BF92CF92DF92EF92FF9289
:100FA0006B017C010E94A2074B015C011BC021E088
:100FB000C21AD108E108F10888EE880E83E0981E75
:100FC000A11CB11CC114D104E104F10459F00E9428
:100FD000A207681979098A099B09683E734081054F
:100FE000910528F7C114D104E104F10459F7FF90E9
:100FF000EF90DF90CF90BF90AF909F908F9008952B
:10100000CF93DF93EC018F811816DCF461E00E942E
:10101000010761E08F810E94CE066AE070E080E007
:1010200090E00E94C80760E08F810E94CE066AE0CF
:1010300070E080E090E00E94C80761E08F810E942C
:10104000CE06DF91CF910895FC0167830895FC01DE
:1010500085A9811109C07EBD0DB407FEFDCF6EBD0F
:101060000DB407FEFDCF08958130F9F0A78DB0A132
:101070007C93A5A1B6A18C9192A589238C93A5A15F
:10108000B6A18C9191A5892B8C93A78DB0A16C935F
:10109000A5A1B6A18C9192A589238C93A5A1B6A1F7
:1010A0008C9191A5892B8C93089590E015C0A1A1F6
:1010B000B2A18C9126A182238C93A3A1B4A18C917F
:1010C00027A1822B8C93A3A1B4A18C9120A582236C
:1010D0008C93660F771F9F5F903130F777233CF733
:1010E000A1A1B2A18C9125A1822B8C93E6CFFC010A
:1010F00085A9811105C06EBD0DB407FEFDCF089511
:10110000813081F0A78DB0A16C93A5A1B6A18C917F
:1011100092A589238C93A5A1B6A18C9191A5892B29
:101120008C93089590E014C0A1A1B2A18C9125A147
:10113000822B8C93A3A1B4A18C9127A1822B8C9399
:10114000660FA3A1B4A18C9120A582238C939F5FED
:10115000983038F7662344F3A1A1B2A18C9126A15F
:1011600082238C93E7CFCF93DF93EC01ED8DFE8D3F
:1011700080819CA989238083CE010E947708ED8D10
:10118000FE8D80819BA9892B8083DF91CF9108956B
:10119000AF92BF92CF92DF92EF92FF920F931F9385
:1011A000CF93DF93EC015B016A01260F371F7901B2
:1011B00081E0E81AF108040F151F015011096AE2D5
:1011C000CE010E94B308B501CE010E942708B701E5
:1011D000CE010E9427086BE2CE010E94B308B6013F
:1011E000CE010E942708B801CE010E9427086CE2B8
:1011F000CE010E94B308DF91CF911F910F91FF9014
:10120000EF90DF90CF90BF90AF900895BF92CF92B4
:10121000DF92EF92FF920F931F93CF93DF936C01B6
:10122000EA01B22EDC01D5968C91D5978823B9F1CD
:10123000F60187A988234CF0038CF48DE02D808182
:10124000D601D2969C9189238083D6015D96ED913B
:10125000FC915E978081D4969C9189238083C601FE
:101260000E947708D6015D96ED91FC915E97808192
:10127000D3969C91892B808310E000E0B016110674
:10128000B1F0ACF07E01BFEFEB1AFB0AFE016491F6
:10129000C6010E9477080F5F1F4FE701EFCF9196BD
:1012A0009C91919792968C919CBD8DBDC1CFD6019A
:1012B000D7968C91D79788234CF05B96ED91FC9153
:1012C0005C978081D1969C91892B8083DF91CF910F
:1012D0001F910F91FF90EF90DF90CF90BF900895F6
:1012E000DF92EF92FF920F931F93CF93DF938C01C6
:1012F0007A01D22EDC01D5968C91D597882391F175
:10130000F80187A988234CF0038CF48DE02D8081AF
:10131000D801D2969C9189238083D8015D96ED9166
:10132000FC915E978081D4969C9189238083C8012B
:101330000E947708D8015D96ED91FC915E978081BF
:10134000D3969C91892B8083D0E0C0E0DC161D06EB
:1013500089F084F0F70161917F01C8010E9477084C
:101360002196F4CF91969C91919792968C919CBDE9
:101370008DBDC6CFD801D7968C91D79788234CF0D6
:101380005B96ED91FC915C978081D1969C91892B25
:101390008083DF91CF911F910F91FF90EF90DF90AD
:1013A0000895611107C060E220E050E040E00E9433
:1013B0007009089561E2F8CFCF93DF931F92CDB704
:1013C000DEB7FC01962F69839370968B9130E1F024
:1013D00080F0923021F1933069F121E0AE014F5F4E
:1013E0005F4F66E3CF010E9470090F90DF91CF91AC
:1013F000089588E4898380EF90E09187808780E476
:1014000091E093878287E9CF88E2898380E491E045
:101410009187808780EF90E093878287DECF88E88E
:10142000898380EF90E09187808780E491E09387C3
:101430008287D3CF88EE898380E491E0918780878B
:1014400080EF90E093878287C8CF1F93CF93DF937D
:10145000EC01162FE881F9810284F385E02D1995BE
:1014600011110FC06EADCE010E94B308E881F98161
:101470000688F789E02DCE011995DF91CF911F9154
:1014800008956DADF0CFAF92BF92CF92DF92EF9201
:10149000FF920F931F93CF93DF93772394F1DC0197
:1014A0001896ED91FC9119976E177F0754F5552307
:1014B00044F11A96ED91FC914E175F0714F57901EE
:1014C0006A015B01EC01E881F9810284F385E02D7A
:1014D0001995E881F98102A4F3A5E02D01E010E05F
:1014E00021E030E0A601B501CE011995B701CE018A
:1014F0000E942708E881F9810688F789E02DCE014E
:101500001995DF91CF911F910F91FF90EF90DF9090
:10151000CF90BF90AF900895CF92DF92EF92FF925D
:10152000CF93DF93FC01211531054105510509F4E5
:10153000C0C0C72F85A9811115C0DA01C901019763
:10154000A109B109232B242B252B09F4B2C0CEBD50
:101550000DB407FEFDCF6EBD0DB407FEFDCF9C019F
:10156000AD01EBCF813091F1761709F480C06901AC
:101570007A0181E0C81AD108E108F108232B242B55
:10158000252B09F496C0A78DB0A1CC93A5A1B6A137
:101590008C9192A589238C93A5A1B6A18C9191A53C
:1015A000892B8C93A78DB0A16C93A5A1B6A18C912A
:1015B00092A589238C93A5A1B6A18C9191A5892B85
:1015C0008C93A7019601D3CFA701960169017A01F7
:1015D00081E0C81AD108E108F108232B242B252B20
:1015E00009F467C02C2F90E014C0A1A1B2A18C9186
:1015F000D5A18D2B8C93A3A1B4A18C91D7A18D2BB8
:101600008C93A3A1B4A18C91D0A58D238C93220F90
:101610009F5F983048F4222344F3A1A1B2A18C919A
:10162000D6A18D238C93E7CF262F90E014C0A1A1E3
:10163000B2A18C91D5A18D2B8C93A3A1B4A18C9137
:10164000D7A18D2B8C93A3A1B4A18C91D0A58D2370
:101650008C93220F9F5F983008F0B6CF22233CF383
:10166000A1A1B2A18C91D6A18D238C93E6CFDA01F2
:10167000C901880F991FAA1FBB1FC78DD0A17883EE
:10168000AC01BD014150510961097109892B8A2BB7
:101690008B2B79F0A5A1B6A18C9192A589238C936F
:1016A000A5A1B6A18C9191A5892B8C93DB01CA01D0
:1016B000E7CFDF91CF91FF90EF90DF90CF9008952B
:1016C0006F927F928F929F92AF92BF92CF92DF9252
:1016D000EF92FF920F931F93CF93DF93EC016B0177
:1016E0005A012115310509F45AC00115110509F4F3
:1016F00056C033230CF462C088859985C816D90674
:101700000CF04DC011230CF461C04A855B85A41612
:10171000B5060CF044C04601820E931EB401615020
:101720007109EAF13501600E711EF3013197BAF1CA
:10173000DD200CF454C04901BB200CF453C0380127
:10174000681779071CF04C018C189D08E417F50701
:101750001CF03A016A187B08E881F9810284F3855C
:10176000E02DCE011995E881F98102A4F3A5E02DC1
:1017700083019401A501B601CE0119959401D3010D
:101780000E94F6289B01AC01B701CE010E948C0A91
:10179000E881F9810688F789E02DCE011995DF915E
:1017A000CF911F910F91FF90EF90DF90CF90BF905E
:1017B000AF909F908F907F906F900895C901019690
:1017C000C80ED91E31952195310996CFA8014F5FDA
:1017D0005F4FA40EB51E11950195110996CFD12C1E
:1017E000C12CAACFB12CA12CABCF8F929F92AF92DC
:1017F000BF92CF92DF92EF92FF920F931F93CF93FE
:10180000DF937C01EB016A015801DD230CF44AC02F
:10181000DC0118968D919C91681779070CF042C0F5
:101820002115310509F43EC00CF449C0F701828549
:101830009385C816D906B4F54601820E931EA401FD
:10184000415051097AF1DD200CF441C0490148179B
:1018500059071CF04C018C189D08D701ED91FC91A3
:101860000284F385E02DC7011995D701ED91FC9114
:1018700002A4F3A5E02D840121E030E0A601BE0121
:10188000C70119959401990C440B550BB501C7017B
:101890000E948C0AD701ED91FC910688F789E02D12
:1018A000C7011995DF91CF911F910F91FF90EF9094
:1018B000DF90CF90BF90AF909F908F900895C90117
:1018C0000196C80ED91E319521953109AFCFD12C83
:1018D000C12CBDCF8F929F92AF92BF92CF92DF92D9
:1018E000EF92FF920F931F93CF93DF937C016B01D5
:1018F000EA015801DD230CF44AC0DC011A968D91EF
:101900009C91481759070CF042C02115310509F484
:101910003EC00CF449C0F70180859185C816D906F0
:10192000B4F54601820E931EA401415051097AF18B
:10193000DD200CF441C04901481759071CF04C0147
:101940008C189D08D701ED91FC910284F385E02D60
:10195000C7011995D701ED91FC9102A4F3A5E02DE3
:1019600001E010E09401AE01B601C70119959401A0
:10197000990C440B550BB501C7010E948C0AD70185
:10198000ED91FC910688F789E02DC7011995DF914B
:10199000CF911F910F91FF90EF90DF90CF90BF906C
:1019A000AF909F908F900895C9010196C80ED91EDF
:1019B000319521953109AFCFD12CC12CBDCFCF921C
:1019C000DF92EF92FF920F931F93CF93DF93EC017F
:1019D000780177237CF1888599856817790754F514
:1019E0002115310539F17CF18A859B854817590706
:1019F0000CF56A01C20ED31EF6013197DAF05523B9
:101A000054F16901E817F9071CF06C01C41AD50AF2
:101A1000E881F98102A4F3A5E02D860121E030E000
:101A2000CE0119959601DD0C440B550BB701CE0183
:101A30000E948C0ADF91CF911F910F91FF90EF9040
:101A4000DF90CF900895C9010196480F591F319535
:101A500021953109C9CF50E040E0D4CFCF92DF9239
:101A6000EF92FF920F931F93CF93DF93EC017801D6
:101A700055237CF18A859B854817590754F5211514
:101A8000310539F17CF188859985681779070CF55E
:101A90006B01C20ED31EF6013197DAF0772354F1B1
:101AA0006901E817F9071CF06C01C61AD70AE8812A
:101AB000F98102A4F3A5E02D01E010E09601CE012A
:101AC00019959601DD0C440B550BB701CE010E9410
:101AD0008C0ADF91CF911F910F91FF90EF90DF90D3
:101AE000CF900895C9010196680F791F319521950E
:101AF0003109C9CF70E060E0D4CF6F927F928F92AE
:101B00009F92AF92BF92CF92DF92EF92FF920F938C
:101B10001F93CF93DF93EC012115310509F44CC0DD
:101B20000115110509F448C033230CF454C088850D
:101B30009985681779070CF03FC011230CF453C046
:101B4000EA85FB854E175F07BCF55B01A20EB31E4D
:101B50003501A1E06A1A71087AF14A01800E911EDE
:101B60006401A1E0CA1AD1083AF177230CF443C00A
:101B7000590155230CF442C04801681679061CF03F
:101B80005C01A61AB70ACE16DF061CF04F01841AB4
:101B9000950AE881F98102A4F3A5E02D840195015D
:101BA000CE0119959501D4010E94F6289B01AC0144
:101BB000B701CE010E948C0ADF91CF911F910F9146
:101BC000FF90EF90DF90CF90BF90AF909F908F905D
:101BD0007F906F900895C9010196680F791F319524
:101BE00021953109A4CFF80131964E0F5F1F119551
:101BF00001951109A5CF70E060E0BBCF50E040E057
:101C0000BCCFEF92FF920F931F93CF93DF93772375
:101C10000CF1DC011896ED91FC9119976E177F0776
:101C2000CCF45523BCF01A96ED91FC911B974E17FE
:101C30005F0784F4E9017C01ED91FC9102A4F3A516
:101C4000E02D01E010E021E030E01995BE01C70170
:101C50000E942708DF91CF911F910F91FF90EF9085
:101C60000895FC0187A9882334F0A38DB48D8C914D
:101C700091A9892B8C930895FC0185A9882351F0A3
:101C800087A9882334F0A38DB48D8C9192A98923E0
:101C90008C93089591A182A19CBD8DBDF1CF089533
:101CA000FC016370668B613079F028F0623019F0C6
:101CB000633051F008958481958191878087868172
:101CC00097819387828708958681978191878087FE
:101CD0008481958193878287EDCF611101C061E096
:101CE000FC01648B411101C041E0FC01458B08956A
:101CF000462F0E946D0E08952F923F924F925F9251
:101D00006F927F928F929F92AF92BF92CF92DF920B
:101D1000EF92FF920F931F93CF93DF93CDB7DEB770
:101D200060970FB6F894DEBF0FBECDBF9A8389834C
:101D30001B012A01922E19870887FE82ED828C2CC6
:101D4000AF82DC0159962D913C915A9721153105AE
:101D500009F43DC0F9013496E4919E1AB7E09B9EC8
:101D6000C0011124F901329645915491840F951FB9
:101D7000F90165907490FC01A590B490FC01329635
:101D8000C490319624912A87329624912B873196DC
:101D9000E491EC8731E0381508F04DC1822F220F15
:101DA000990B9C838B83AE2FEE0FBB0BBE83AD8351
:101DB000A981BA81ED91FC9111970284F385E02D00
:101DC000CD01199580E01E86912CD12CA7C11896C3
:101DD0008D919C911997681779070CF0AEC11A96EE
:101DE0008D919C911B97481759070CF0A6C16C2C3C
:101DF000712CC301880F991F860D971D880F991F9D
:101E0000860F971F01970AF498C1EA2DF0E0FC8332
:101E1000EB83EE0FFF1FEE0FFF1FEE0FFF1FFD877F
:101E2000EC87CF01840F951F01970AF486C158965D
:101E30008C91811104C02FEA291508F49394A9818B
:101E4000BA81ED91FC9111970284F385E02DCD01CB
:101E50001995A12CAA869B86C884D98491C0A98192
:101E6000BA81ED91FC9111970684F785E02D692DDB
:101E70002B813C816203A001639F500D11246A9C59
:101E8000B0016B9C700D7A9C700D1124440D551D92
:101E9000620D731D760189019301CD01199593940B
:101EA0008E859F85959587959F878E87EE85F7E030
:101EB000F9150CF462C02E2F30E03F872E87E0FF2B
:101EC0001AC031E08312CBCF4F81413041F6A98156
:101ED000BA81ED91FC9111970484F585E02D96016E
:101EE000A201490D511D97FC5A95B501620D731D54
:101EF000CD011995D4CF8D819E81C816D90679F26E
:101F000091E0891611F1A981BA81ED91FC911197A7
:101F10000684F785E02D692D2B813C816203A001A9
:101F2000639F500D11246A9CB0016B9C700D7A9CCC
:101F3000700D1124440D551D620D731DED80FE8042
:101F400089019301CD011995AACFAF81A130D9F6AE
:101F5000A981BA81ED91FC9111970484F585E02D5A
:101F60002D813E81A201490D511D97FC5A95B50165
:101F7000620D731DCD01199592CF9A859F5F9A8747
:101F8000BA85B530A4F4AB2EBB0FBB08EB858E2F02
:101F900090E0FC01EE0FFF1FEE0FFF1FE80FF91F8F
:101FA000EA0DFB1DE454FD4FE491912C80CFA885F0
:101FB000B985ED81FE81AE17BF07E1F0F1E08F1624
:101FC00021F1A981BA81ED91FC9111970684F785E1
:101FD000E02DB301660F771F660F771F660D771D23
:101FE000620D731DED80FE800C851D859301A2019D
:101FF000CD011995A981BA81ED91FC9111970688BF
:10200000F789E02DCD01199598C02F812130C9F6AF
:10201000A981BA81ED91FC9111970088F189E02D99
:10202000B1016B5F7F4F0D811E8128E030E0A2017E
:10203000CD011995DFCF4F81423008F0AFCE1E821F
:102040001D821C821B82B4CEDD20B4F0DD0C8E8597
:102050008F5F8E878889FE85FC1508F05EC021E0C1
:10206000280F288B877081F7C5010196F301EA0DCF
:10207000FB1DD4905C01E8CF31E0831669F1A981A2
:10208000BA81ED91FC910684F785E02DBF810B2F7D
:1020900010E0282D30E08D819E81890D911D089FD3
:1020A000A001099F500D189F500D11248B819C8118
:1020B0006E85860F911D289FB001299F700D389F56
:1020C000700D1124440D551D620D731DE884F984B3
:1020D00089819A811995BACF4F81413081F6A981C2
:1020E000BA81ED91FC910484F585E02DA201BC85B7
:1020F0004B0F511DB7FD5A95490D511DB1012B854F
:10210000620F711D27FD7A953E85630F711D28852D
:10211000398589819A81199599CF9394BA859B16AF
:1021200010F41E8698CFA981BA81ED91FC91119788
:102130000688F789E02DCD01199560960FB6F894C1
:10214000DEBF0FBECDBFDF91CF911F910F91FF90EA
:10215000EF90DF90CF90BF90AF909F908F907F9047
:102160006F905F904F903F902F9008958F929F9225
:10217000AF92CF92EF92FF920F931F93CF93DF9383
:10218000EC01898D9A8D009709F470C06A3009F4CA
:10219000C9C06D3009F4D8C0FC013496249162178F
:1021A00008F4D2C03196E491E61708F4CDC0862E2B
:1021B000821A27E0829E40011124FC01329625916B
:1021C0003491820E931EF401329624913196E4915B
:1021D000222309F43EC0EE2309F43BC0F4013596F6
:1021E000E4910E2E000CFF0B3F89332319F14C852F
:1021F0005D857C89E20FF11D7E9F90017F9F300DF0
:102200001124240F351F488559854217530794F42C
:102210001D861C862D8930E00696FC018491829FE4
:10222000A001839F500D11248E859F85840F951FDB
:102230009F878E87EA88FB88088919894E855F8584
:102240008C859D85AD88CC88262FBC01CE010E944F
:102250007C0EF4013496E4912C898C859D85E29F57
:10226000800D911D11249D878C876EC06A3009F402
:1022700048C06D3009F468C08F89882311F14C85FE
:102280005D852C8930E0C901880F991F820F931F4B
:10229000880F991F840F951F2885398528173907BE
:1022A00084F41D861C868D8990E0880F991F880F05
:1022B000991F880F991F2E853F85820F931F9F8737
:1022C0008E87EA88FB88088919894E855F858C8509
:1022D0009D85AD88CC88262FBC01CE010E947C0E46
:1022E0008C89282F30E0C901880F991F820F931F16
:1022F000880F991F2C853D85820F931F9D878C87A2
:1023000023C01D861C868D8990E0880F991F880F39
:10231000991F880F991F2E853F85820F931F9F87D6
:102320008E8712C01D861C862D8930E0FC013696F2
:10233000E491E29FA001E39F500D11248E859F85BB
:10234000840F951F9F878E8781E090E0DF91CF916A
:102350001F910F91FF90EF90CF90AF909F908F9033
:1023600008956F927F928F929F92AF92BF92CF9279
:10237000DF92EF92FF920F931F93CF93DF93EC01C5
:102380006B015A0139014801E881F9810284F38522
:10239000E02D1995E881F9810288F389E02D870104
:1023A0009301A501B601CE011995E881F981028852
:1023B000F389E02DA501480D591D415051099301A4
:1023C000B601CE011995E881F9810088F189E02DE7
:1023D0009401A501B601CE011995E881F981008823
:1023E000F189E02DC60CD71CB6016150710994012A
:1023F000A501CE011995E881F9810688F789E02DBC
:10240000CE011995DF91CF911F910F91FF90EF9021
:10241000DF90CF90BF90AF909F908F907F906F9004
:1024200008956F927F928F929F92AF92BF92CF92B8
:10243000DF92EF92FF920F931F93CF93DF93EC0104
:102440004B016A01390158016217730749F14017BE
:102450005107F1F1E881F9810284F385E02D1995A6
:10246000E881F9810488F589E02D9301A601B40182
:10247000CE011995E881F9810688F789E02DCE0112
:102480001995DF91CF911F910F91FF90EF90DF9001
:10249000CF90BF90AF909F908F907F906F90089556
:1024A0000417150784F4E881F981048CF58DE02D7B
:1024B00096012A193B092F5F3F4F8701A501B401FF
:1024C000CE011995DECF8B2D5A01C02ED82EEBCF21
:1024D0002617370784F4E881F981068CF78DE02D03
:1024E0009401261937092F5F3F4F8701A601B301D9
:1024F000CE011995C6CF872D3B01822E982EEBCFAA
:10250000EF92FF920F931F93DC01ED91FC911197D5
:1025100000A0F1A1E02D1A960D911C911B97189621
:102520002D913C917B0150E040E070E060E0199516
:102530001F910F91FF90EF9008954F925F926F92CD
:102540007F928F929F92AF92BF92CF92DF92EF9243
:10255000FF920F931F93CF93DF93EC016B013A012E
:10256000590148012701E881F9810284F385E02DB2
:1025700019957601C6018A0D9B1DE816F9067CF4B3
:10258000E881F9810088F189E02D82019401A3019D
:10259000B701CE0119958FEFE81AF80AEBCFE88161
:1025A000F9810688F789E02DCE011995DF91CF9149
:1025B0001F910F91FF90EF90DF90CF90BF90AF9061
:1025C0009F908F907F906F905F904F9008958F9223
:1025D0009F92AF92BF92CF92DF92EF92FF920F93B2
:1025E0001F93CF93DF93EC015B014A016901E881FE
:1025F000F9810284F385E02D1995E881F981048839
:10260000F589E02D95012C0D3D1D215031097801F2
:102610008401A401B501CE011995E881F9810688EC
:10262000F789E02DCE011995DF91CF911F910F9180
:10263000FF90EF90DF90CF90BF90AF909F908F90E2
:1026400008958F929F92AF92BF92CF92DF92EF92B6
:10265000FF920F931F93CF93DF93EC015B014A012D
:1026600069017801E881F9810284F385E02D1995EB
:10267000E881F9810488F589E02D84010C0D1D1D88
:10268000015011099501A401B501CE011995E88108
:10269000F9810688F789E02DCE011995DF91CF9158
:1026A0001F910F91FF90EF90DF90CF90BF90AF9070
:1026B0009F908F9008950895EF92FF920F931F932C
:1026C000DC01ED91FC9100A0F1A1E02D19951F9185
:1026D0000F91FF90EF9008950F931F93DC01ED9100
:1026E000FC91068CF78DE02D19951F910F9108959F
:1026F0000F931F93DC01ED91FC91048CF58DE02D7F
:1027000019951F910F910895DC01ED91FC910084C2
:10271000F185E02D1995089508952F923F924F92DB
:102720005F926F927F928F929F92AF92BF92CF9261
:10273000DF92EF92FF920F931F93CF93DF9300D01E
:1027400000D0CDB7DEB79A8389836A013E832D839B
:10275000FC82EB82C801841B950B3C01D2F18D8178
:102760009E81861B970B7C01CAF1E614F7045CF08E
:10277000902F812F0D811E819D838E839C2D8D2D09
:102780006B01692F782F0C151D055CF09D818E81E2
:102790007E836D83692F782F902F812F8601C92E1C
:1027A000D82E5601A01AB10ACB012D813E81821B81
:1027B000930B2C01C2F04501BB20D4F09594879473
:1027C0008D819E8186179707BCF422242394312C97
:1027D0002BC066247724681A790AC1CFEE24FF241F
:1027E000E81AF90AC2CF44245524481A590AE3CFFB
:1027F0003FEF831A930AE2CF22242A94322C14C08A
:10280000A981BA81ED91FC9111970484F585E02DA1
:102810002B813C814D815E81B801CD0119958418D1
:102820009508C2F00F5F1F4FC016D106E4F0E61402
:10283000F70434F7A981BA81ED91FC9111970484D2
:10284000F585E02D2B813C81A8016D817E81CD0134
:102850001995E5CF2D813E81220D331D3E832D83B9
:102860008A0C9B1CDFCF26960FB6F894DEBF0FBEF6
:10287000CDBFDF91CF911F910F91FF90EF90DF902F
:10288000CF90BF90AF909F908F907F906F905F9010
:102890004F903F902F900895FC011382128280EA9E
:1028A00092E0918380837583648357834683718725
:1028B000608753874287168A158614861786168680
:1028C00081E0858B848B2FEF3FEF338B228B318B15
:1028D000208B878B108E128E118E0895AF92BF922F
:1028E000CF92EF920F931F93CF93DF93EC01590197
:1028F0000E944C148CEC92E0998388831DAACEAA86
:102900000FABE8AE1AAE19AE1CAE1BAE1DAE1EAEBE
:10291000FE01FF961082118212821382B8A2AF8E3E
:102920008E2DEE0C990BFC01E15AF74FE491F0E08B
:10293000EE0FFF1FEB5BF74F259134913E8F2D8FEC
:102940008B55974FFC0184918BAB002324F1002E13
:10295000000C110BF801E15AF74FE491F0E0EE0F93
:10296000FF1FEB5BF74F859194919C8F8B8F0B55DD
:10297000174FF801049109AB89A980958AAB8BA9FF
:1029800080958CABDF91CF911F910F91EF90CF90FD
:10299000BF90AF9008953C8F2B8F19AAEDCFCF92A7
:1029A000EF920F93CE2CE02E022F29E935E00E9402
:1029B0006E140F91EF90CF900895EF920F93CF93F5
:1029C000DF93EC01E22E042F262F40E451E060EF6C
:1029D00070E00E94CF148CEF92E099838883DF919E
:1029E000CF910F91EF9008950895FC011082089502
:1029F0006FEF7FEF81E090E00E94752008951F93B4
:102A0000CF93DF93EC01162F8F8580FF0BC0E881F9
:102A1000F9810084F185E02D20E144E070E060E080
:102A2000CE011995EB85FC858D859E85E817F90704
:102A300068F0E881F981028CF38DE02D612F70E060
:102A4000CE011995DF91CF911F91089510838B8549
:102A50009C8501969C878B87812F90E0F3CFCB01DB
:102A600008958F929F92AF92BF92CF92DF92EF9292
:102A7000FF920F931F93CF93DF938C01EB014901DA
:102A80005A01C12CD12C7601C814D904EA04FB04E4
:102A90008CF4FE01EC0DFD1D6081C8010E94FF1445
:102AA000019631F08FEFC81AD80AE80AF80AECCF7D
:102AB00046015701C501B401DF91CF911F910F91DC
:102AC000FF90EF90DF90CF90BF90AF909F908F904E
:102AD0000895CF93DF93EC01E881F9810288F389AF
:102AE000E02D19958F3F980731F02D813E812F5FA2
:102AF0003F4F3E832D83DF91CF9108958FEF9FEF5E
:102B0000089560E070E0CB01089590E080E00895C2
:102B1000EF92FF921F93CF93DF937C01EB016F3F06
:102B2000760749F0162F6A3081F0612FF70180890E
:102B300091890E94E105CF3FDC0771F0CE01DF9162
:102B4000CF911F91FF90EF9008956DE0F70180897C
:102B500091890E94E105E9CFD0E0C0E0EFCF4F922C
:102B60005F926F927F92AF92BF92CF92DF92EF927D
:102B7000FF920F931F93CF938C015B0129013A01C0
:102B8000C12CD12C76010BC06C2FF8018089918962
:102B90000E94E105FFEFCF1ADF0AEF0AFF0AC41413
:102BA000D504E604F7046CF4F501EC0DFD1DC081BD
:102BB000CA3051F76DE0F801808991890E94E105E2
:102BC000E3CFC301B201CF911F910F91FF90EF901E
:102BD000DF90CF90BF90AF907F906F905F904F90BD
:102BE0000895CB010895CF93DF93EC0188899989EB
:102BF000DC01ED91FC910084F185E02D1995892B84
:102C0000A9F388899989DC01ED91FC910284F3850F
:102C1000E02D1995DF91CF910895CF93DF93EC01CB
:102C200088899989DC01ED91FC910084F185E02D82
:102C30001995892BA9F388899989DC01ED91FC917B
:102C40000484F585E02D1995DF91CF9108958F9239
:102C50009F92AF92BF92CF92DF92EF92FF920F932B
:102C60001F93CF93DF93EC018B0149015A01C12CD3
:102C7000D12C760188899989DC01ED91FC9102843F
:102C8000F385E02D19958F3F79F0C814D904EA0433
:102C9000FB0454F4F801EC0DFD1D8083BFEFCB1A4B
:102CA000DB0AEB0AFB0AE6CFC701B601DF91CF9141
:102CB0001F910F91FF90EF90DF90CF90BF90AF905A
:102CC0009F908F900895DC0150968D919C91DC012E
:102CD000ED91FC910084F185E02D1995089590E027
:102CE00080E0089590E080E0089590E080E008950D
:102CF00090E080E0089508950895DC01ED91FC9145
:102D000036970190F081E02DE80FF91F82E592E0FF
:102D1000918380838CE592E0918F808F8CE692E0A6
:102D2000978386830895FC0182E592E091838083F6
:102D30008CE592E0918F808F8CE692E0978386837A
:102D40000895FC0180E392E09183808314821382D2
:102D500016821582108617821286118614861386B3
:102D600016861586178608952CE632E0FC0131831D
:102D700020830895FB0120813181FC013183208370
:102D8000FB014281538126503109F90120813181B3
:102D9000820F931FFC015183408308952EE832E097
:102DA000FC013183208328E932E0358B248B2CE62B
:102DB00032E03383228362E672E00E94BA160895FD
:102DC000DC01ED91FC9136970190F081E02DE80F48
:102DD000F91F8EE892E09183808388E992E0958BD9
:102DE000848B8CE692E09383828362E672E0CF016B
:102DF0000E94BA1608951F93CF93DF93182FC091A6
:102E00003D05D0913E058A3041F4E881F981019079
:102E1000F081E02D6DE0CE011995E881F9810190F6
:102E2000F081E02D612FCE01199521E0019731F05D
:102E3000822F90E0DF91CF911F91089520E0F8CF8D
:102E4000CF93DF93C0913D05D0913E05E881F98194
:102E50000084F185E02DCE011995892BB9F3E88125
:102E6000F9810284F385E02DCE011995DF91CF9190
:102E700008956FEF7FEF81E090E00E944017089582
:102E8000019709F008956F3F7F4FE1F766E18AE20D
:102E900095E00E9424088DE195E00E94F5142FEF43
:102EA00049E06AE08AED94E00E94DD14EBCFFC017A
:102EB000A685B7859C918585892308956FEF7FEF5F
:102EC00081E090E00E94AF17089508950895089555
:102ED000E091D2048091D104E81730F4F0E0EF548F
:102EE000FB4F808190E008958FEF9FEF08959091C0
:102EF000D2048091D104981758F4E92FF0E0EF54F0
:102F0000FB4F208130E09F5F9093D204C901089568
:102F10002FEF3FEFFBCF8091D1049091D204891B1A
:102F2000990B089581E08093B00460938F04109210
:102F3000D4041092D30408950E9492170895FC01BE
:102F40001382128288EE93E0A0E0B0E08483958340
:102F5000A683B7838EE192E09183808308950197E1
:102F600009F008956F3F7F4FE1F78AE995E00E94ED
:102F70009F17F7CF90E080E0089585EC8093BC0028
:102F800010926904089585ED8093BC008091BC0087
:102F900084FDFCCF109269040895811104C085E876
:102FA0008093BC00089585EC8093BC0008959093B5
:102FB000420480934104089590934604809345040D
:102FC0000895AC0120914304260F3327331F21328B
:102FD0003105F4F4809169048430E1F490E00FC08D
:102FE000E0914304292F30E0E20FF32FF11D240F6D
:102FF000351FD9012C91EF5DFB4F20839F5F961702
:1030000078F380914304680F6093430480E008954F
:1030100081E0089582E00895CF92DF92EF92FF92CF
:103020000F931F93CF93DF938C016B017A018091F3
:10303000B004882399F0D0E0C0E0CE15DF0590F40D
:10304000D801ED91FC910190F081E02DD601AC0FFB
:10305000BD1F6C91C80119952196EFCF642FC60151
:103060000E94E117C701DF91CF911F910F91FF904F
:10307000EF90DF90CF900895CF93DF931F92CDB75D
:10308000DEB7FC0169839091B0049923F1F090912F
:10309000D304903250F081E090E09383828390E0FB
:1030A00080E00F90DF91CF9108958091D404E82FB4
:1030B000F0E0E057FB4F998190838F5F8093D404B9
:1030C0008093D30481E090E0ECCF61E0CE010196E3
:1030D0000E94E11781E090E0E4CF0F93413208F0C5
:1030E00051C0909169049111FCCF92E090936904D2
:1030F00000936B049FEF9093680410928D044093AB
:103100008C0490E00AC0E92FF0E0DB01AE0FBF1F96
:103110003C91E459FB4F30839F5F9417A0F31092CA
:103120008E04880F90918E04892B80938E04809159
:103130006A048130B9F085EE8093BC00222321F02F
:10314000809169048230D1F3809168048F3FE9F067
:10315000809168048032D9F080916804803381F0D6
:1031600084E011C010926A0480918E048093BB00A9
:103170008091BC0083FDF8CF85EC8093BC00DECF4E
:1031800083E001C081E00F91089580E0FCCF82E0F0
:10319000FACF0F934091D304062F21E060E974E049
:1031A00080918F040E946D181092D4041092D30461
:1031B0001092B0040F91089561E00E94C91808951B
:1031C000CF93DF93D62FC42F68E370E08AE995E0B0
:1031D0000E949C176D2F8AE995E00E943C186C2F85
:1031E0008AE995E00E943C188AE995E00E94DC1883
:1031F000DF91CF910895413208F04AC0909169045F
:103200009111FCCF91E09093690420936B042FEF10
:103210002093680410928D04240F20938C049093C3
:103220008E04880F90918E04892B80938E04809158
:103230006A04813079F085EE8093BC008091690446
:103240008130E1F380918D04841790F480918D0496
:1032500090E01BC010926A0480918E048093BB00A2
:103260008091BC0083FDF8CF85EC8093BC00E6CF55
:10327000842FEECF292F30E0FB01E20FF31F2459FA
:103280003B4FD9012C9120839F5F981798F30895A5
:1032900080E008954F925F926F927F92AF92BF92BB
:1032A000CF92EF92FF920F931F93CF93DF935C0126
:1032B000F62ED42F28013901E1101CC0D13208F0BC
:1032C000D0E22C2D4D2F61EB74E08F2D0E94FB1866
:1032D0001092D2048093D104DF91CF911F910F916E
:1032E000FF90EF90CF90BF90AF907F906F905F90E6
:1032F0004F9008950E94921723E02E1520F40F2E70
:10330000F3E0EF2EF02DCFEFCE0DEE20C1F0D50182
:10331000ED91FC910190F081E02D8C2F880F880FAA
:10332000880FA301920104C05695479537952795BC
:103330008A95D2F7B901C5011995EC2EE4CF60E06A
:10334000C5010E94C918BACFCF92EF920F931F9375
:10335000C22EE12C00E010E098010E944A191F9152
:103360000F91EF90CF90089521E00E94A419089545
:10337000CF93DF93EC016A898AE995E00E94921766
:10338000E0919A05F0919B050190F081E02D64E1B8
:103390008AE995E019958AE995E00E94DC186A8926
:1033A00041E08AE995E00E94B4198AE995E00E941B
:1033B0008B171816190664F06EE28FEA95E00E94EA
:1033C000E10561E070E080E090E00E94C807EDCF89
:1033D0008AE995E00E947717DF91CF9108950F93C6
:1033E0001F93CF93DF938C01D62FFC0162898AE96A
:1033F00095E00E949217C0E0CD1750F4F801EC0F51
:10340000F11D60858AE995E00E943C18CF5FF4CFFA
:103410008AE995E00E94DC18C4E680E01FC0222300
:10342000B9F08823A9F061E070E080E090E00E94AC
:10343000C807C1508AE995E00E948B1721E0181651
:1034400019060CF420E081E0C111E9CF80E0E7CF5C
:10345000CC2371F08AE995E00E947717882344F025
:10346000F801628941E08AE995E00E94B419E2CF4F
:10347000DF91CF911F910F910895CF93DF93EC01CE
:1034800080E18887198662E0CE010E94EF196A897F
:1034900049E08AE995E00E94B4198AE995E00E9422
:1034A00077178AE995E00E947717C82F8AE995E097
:1034B0000E9477178AE995E00E9477178AE995E0DC
:1034C0000E9477178AE995E00E9477178AE995E0CC
:1034D0000E9477178AE995E00E9477178AE995E0BC
:1034E0000E9477178C2FDF91CF910895CF93DF93B0
:1034F000EC01AB019B01ADECBCEC0E94A5279695BD
:103500008795969587959C01220F331F220F331FB5
:10351000820F931F9A01281B390BC901892B11F0C7
:10352000421B530B82E3888719865A874B871C8678
:1035300065E0CE010E94EF19CE010E94B8198138D2
:1035400039F06AE070E080E090E00E94C807F4CFB4
:10355000DF91CF910895CF93DF93EC0183E38887C8
:1035600081E0898762E0CE010E94EF196A8948E014
:103570008AE995E00E94B4198AE995E00E947717DC
:103580008AE995E00E9477178AE995E00E9477170B
:10359000188289838AE995E00E947717288139810A
:1035A000822B932B998388838AE995E00E94771771
:1035B0008AE995E00E9477178A838AE995E00E945C
:1035C00077178B838AE995E00E9477178C83DF91C8
:1035D000CF910895CF93DF93EC0184E3888781E056
:1035E000898762E0CE010E94EF196A8945E08AE985
:1035F00095E00E94B4198AE995E00E9477178AE95C
:1036000095E00E9477178D838AE995E00E947717ED
:103610008AE995E00E9477178AE995E00E9477177A
:103620008E83DF91CF910895FC0181E3808711861D
:1036300012866387448765E0CF010E94EF190895E1
:10364000CF93DF93EC0180E3888719867A876B87B5
:1036500064E0CE010E94EF19CE010E94B819817872
:10366000813839F06AE070E080E090E00E94C8079D
:10367000F3CFDF91CF910895FC0182E1808711861D
:10368000728763875487458766E0CF010E94EF19F0
:103690000895CF93DF93EC0181E0888782E18987E9
:1036A00080E58A8763E0CE010E94EF1940E050E890
:1036B00061E072E0CE010E943C1B50E040E066E019
:1036C00071E2CE010E943C1B4AE050E064E072E2ED
:1036D000CE010E943C1B50E040E060E072E2CE016F
:1036E0000E943C1BDF91CF910895CF93C62F68E3D2
:1036F00070E08AE995E00E949C176C2F8AE995E0BA
:103700000E943C188AE995E00E94DC1841E068E3D9
:103710008AE995E00E94B4198AE995E00E9477173A
:10372000CF9108951092690481E080936B04109208
:103730006A0461E084E10E94CE0661E085E10E94B6
:10374000CE06E9EBF0E080818E7F808380818D7FE3
:10375000808388E48093B80085E48093BC0008955A
:103760001092D2041092D1041092D4041092D30477
:103770000E94921B85E697E10E94D71786E697E1A3
:103780000E94DC1708951F93CF93DF93EC01162F4F
:103790008AE995E00E94B01B1A8BCE010E940008B6
:1037A000CE010E94491BCE010E943D1A8D3029F0A6
:1037B00080E0DF91CF911F91089581E0FACF1F93B0
:1037C000CF93DF93EC01162F8AE995E00E94B01B9E
:1037D000412F60E8CE010E94E01868EACE010E9405
:1037E000751B813129F080E0DF91CF911F91089501
:1037F00063EACE010E94751B863041F0863341F0AA
:10380000843611F080E0F0CF81E0EECF81E0ECCFA4
:1038100081E0EACFCF93CFB7F89480912004811153
:1038200023C0E4E9F8E08491EAEDF8E09491E82F10
:10383000F0E0EE0FFF1FE55DF74FA591B491EC911D
:10384000E923D1F061E085E30E9401078CB5806136
:103850008CBD8CB580648CBD61E084E30E9401075F
:1038600061E083E30E940107809120048F5F8093D1
:103870002004CFBFCF91089561E085E30E94CE067A
:10388000E1CFDF92EF92FF920F931F93CF93DF93DD
:10389000CDB7DEB7A1970FB6F894DEBF0FBECDBF90
:1038A0007C01CB01BA01D22E19A221E02D1520F402
:1038B0008E010F5D1F4F0EC00F2EFAE0DF2EF02D90
:1038C000F7CFE95CD801EE938D0161157105810593
:1038D000910579F02D2D30E050E040E00E94CC2899
:1038E000E62F622F732F842F952FEA3054F7E05D77
:1038F000E9CF1097F9F0FD0101900020E9F7319729
:10390000AF014A1B5B0BD701ED91FC910280F38163
:10391000E02DB801C7011995A1960FB6F894DEBF46
:103920000FBECDBFDF91CF911F910F91FF90EF9010
:10393000DF90089590E080E0EFCF2115310549F444
:10394000DC01ED91FC910190F081E02D642F19953F
:1039500008950E94411C08959A01AB0170E060E057
:103960000E949D1C08959A01462F50E070E060E08F
:103970000E949D1C0895CF92DF92EF92FF920F93C9
:103980001F93CF93DF93EC016A017B012115310571
:1039900081F4E881F9810190F081E02D642F19957F
:1039A000DF91CF911F910F91FF90EF90DF90CF901B
:1039B00008952A303105C1F4FF2024F02AE00E9446
:1039C000411CEECF6DE20E94E1058C014427552792
:1039D000BA014C195D096E097F092AE0CE010E94E7
:1039E000411C800F911FDCCF0E94411CD9CF9A014E
:1039F000AB01770F660B770B0E94BB1C0895DC01AF
:103A0000ED91FC910280F381E02D42E050E06AE309
:103A100073E0199508956115710581F0FB0101901E
:103A20000020E9F73197AF01461B570BDC01ED9100
:103A3000FC910280F381E02D1995089590E080E0DB
:103A400008954F925F926F927F92AF92BF92CF9202
:103A5000DF92EF92FF920F931F93CF93DF9300D0EB
:103A60001F921F92CDB7DEB75C016A017B012D83E7
:103A7000AB019601CB01B6010E94C728811151C04C
:103A800026013701E89477F821E029832FEF3FEFF3
:103A90004FE75FE7C301B2010E94C72881110BC045
:103AA0002FEF3FEF4FE75FE7C301B2010E9481268E
:103AB00018160CF4198289818823D1F12FEF3FEF7A
:103AC0004FE75FE4C701B6010E94C22818160CF444
:103AD0004AC02FEF3FEF4FE75FECC701B6010E94EE
:103AE000812688230CF446C020E030E0A901C701FC
:103AF000B6010E94812688230CF443C0712C612CEE
:103B000010E060E070E080E09FE32D81121708F084
:103B100042C020E030E040E251E40E9421281F5FD3
:103B2000F4CF6DE373E0C5010E940B1D8C0106C04C
:103B300061E473E0C5010E940B1D8C01C8010F9068
:103B40000F900F900F900F90DF91CF911F910F91D9
:103B5000FF90EF90DF90CF90BF90AF907F906F90ED
:103B60005F904F90089565E473E0C5010E940B1DBE
:103B70008C01E4CF65E473E0C5010E940B1D8C014C
:103B8000DDCF6DE2C5010E94E1053C01F7FAF0943A
:103B9000F7F8F094B5CF9B01AC01C701B6010E94C4
:103BA000B5276B017C010E94932869837A838B83FC
:103BB0009C830E9486269B01AC01C701B6010E942E
:103BC000B4276B017C012AE030E049815A816B8186
:103BD0007C81C5010E949D1C8301080F191F8D81E6
:103BE00081112BC02D81215029838D81882309F4D7
:103BF000A5CF20E030E040E251E4C701B6010E94C9
:103C0000E7262B013C010E9493286B014AE050E01B
:103C1000C5010E94AC1C080F191FB60190E080E09E
:103C20000E9486269B01AC01C301B2010E94B42709
:103C30006B017C0129812D83D5CF6EE2C5010E94E5
:103C4000E105080F191FCECF0E94211D08950F9383
:103C50001F93CF93DF93EC010E940B1D8C01CE01CB
:103C60000E94FF1C800F911FDF91CF911F910F9138
:103C70000895CF93DF938AE295E00E94AB1A90916A
:103C80002D058091D90498131EC08AE295E00E9408
:103C9000EA1A90912F058091D80498132BC0809137
:103CA0003005082E000C990B2091D704821B910936
:103CB00027FD93959C019923A4F12B303105B4F590
:103CC000DF91CF91089569E473E08AED94E00E945A
:103CD0000B1DCAE2D5E04AE050E06B818AED94E02A
:103CE0000E94B31C8AED94E00E94FF1C8B8180939C
:103CF000D904CBCF60E673E08AED94E00E940B1DFF
:103D0000CAE2D5E040E150E06D818AED94E00E9486
:103D1000B31C8AED94E00E94FF1C8D818093D8042F
:103D2000BECF22273327281B390BC7CF6DE673E0A0
:103D30008AED94E00E940B1DCAE2D5E06E81062E4A
:103D4000000C770B4AE050E08AED94E00E94F71CEB
:103D50008AED94E00E94FF1C8E818093D704B0CF3F
:103D60008FE194E00E94391E08950E94F125089584
:103D7000CF93DF93DC01ED91FC913697C081D18127
:103D8000C80FD91F8EE892E09983888388E992E072
:103D90009D8B8C8B8CE692E09B838A8362E672E03B
:103DA000CE010E94BA16CE010E94B51EDF91CF91BE
:103DB0000895CF93DF93EC018EE892E09983888396
:103DC00088E992E09D8B8C8B8CE692E09B838A83C2
:103DD00062E672E0CE010E94BA16CE010E94B51EC4
:103DE000DF91CF910895DC01ED91FC913697019020
:103DF000F081E02DE80FF91F82E592E09183808346
:103E00008CE592E0918F808F8CE692E09783868399
:103E1000CF010E94B51E089522E532E0FC013183F6
:103E200020832CE532E0318F208F2CE632E037837F
:103E300026830E94B51E08950E94B51E08952CE6A3
:103E400032E0FC01318320830E94B51E08950E9458
:103E50000529CF92DF92EF92FF921F93CF93DF93CA
:103E6000EC016A017B01122FC114D104E104F104B9
:103E700041F40F2EC12CF2E1DF2EFAE7EF2EF12CE8
:103E8000F02D8FA9882384F461E088AD0E9401079A
:103E900061E088AD0E94CE068DA9882369F081304B
:103EA00009F465C010E07CC061E00E94010761E098
:103EB0008FA90E94CE06E8CF40E052E16AE770E0A9
:103EC000863058F4C416D506E606F70630F4769523
:103ED0006795579547958F5FF3CF863009F445C0B6
:103EE00091E09827412F4C704065292F30E035959F
:103EF00027952370242B8095817029A38AA3812F75
:103F000090E0B0E0A0E08BA39CA3ADA3BEA30E9471
:103F10000A1C8EA988230CF161E00E94010761E070
:103F20008EA90E94CE0664E670E080E090E00E94D8
:103F3000C80760E08EA90E94CE0664E670E080E0CB
:103F400090E00E94C80761E08EA90E94CE0668EC4E
:103F500070E080E090E00E94C807DF91CF911F9150
:103F6000FF90EF90DF90CF90089587E0B9CF61E0A8
:103F70008AA50E94010760E08AA50E94CE0661E042
:103F80008CA50E94010760E08CA50E94CE068BA53F
:103F900088230CF4BECF60E00E940107BACF1F5FF8
:103FA0001634D0F4E12FF0E0E15AF74FE491F0E05D
:103FB000EE0FFF1FEB5BF74F259134918F8D98A18A
:103FC0002817390761F761E0812F0E94010760E03F
:103FD000812F0E94CE06E3CF61E08EA50E940107EB
:103FE00061E08EA50E94CE068FA588230CF491CFA8
:103FF00061E00E94010761E08FA50E94CE0689CF93
:10400000CF92DF92EF92FF920F931F93CF93DF93A4
:104010007C01411551056105710521F440E052E133
:104020006AE770E0DE2CCF2C20E0C7010E94291F38
:10403000F70186A98823F4F0CCEBD7E0CE010196F6
:10404000FE016491662321F12296FC011491012F57
:104050000F77202FAE018D2D9C2D0E940609C00FD9
:10406000D11D11235CF766E970E080E090E00E94CA
:10407000C807E4CF20E050E040E061E0C7010E94C3
:10408000700966E970E080E090E00E94C807D4CF34
:1040900080EF90E0F7019187808780E491E093873B
:1040A0008287DF91CF911F910F91FF90EF90DF906A
:1040B000CF9008950F931F93CF93DF93EC018B0163
:1040C0008A819B81009711F00E94F1251983088352
:1040D00060E277E18BEF96E10E94EE249B838A8376
:1040E000DF91CF911F910F9108953F924F925F9270
:1040F0006F927F928F929F92AF92BF92CF92DF92F8
:10410000EF92FF920F931F93CF93DF93EC018B01FC
:104110000197C1F0CD2B21F40F3F1F4F09F49CC034
:10412000DF91CF911F910F91FF90EF90DF90CF9093
:10413000BF90AF909F908F907F906F905F904F90C7
:104140003F9008956F3F7F4F29F70F2EFFE6EF2E28
:10415000F5E0FF2EF02D0F2EF1E2CF2ED12CF02D19
:10416000F701D08EC78A118E128E138E0F2EF6E0B5
:104170008F2E912CA12CB12CF02D848E958EA68E95
:10418000B78E10A211A212A213A26894332435F89C
:1041900034A216A215A281E795E090A787A311A6E5
:1041A0008EE892E09183808388E992E0958B848BFE
:1041B00081E795E00E94A1160F2EFCE66F2EF2E03B
:1041C0007F2EF02DF701738262820F2EFFEA4F2EB1
:1041D000F5E05F2EF02D538A428A80E1818B0F2E0D
:1041E000F1E4EF2EF5E0FF2EF02DF701D48EC38E13
:1041F000158E168E178E80A291A2A2A2B3A214A22F
:1042000015A216A217A230A612A611A687E495E061
:1042100094A783A715A6128213821482158282E5C1
:1042200092E0918380838CE592E0918F808F87E488
:1042300095E00E94A116F70177826682578A468A26
:1042400088E0858B1092400510923F05B2018DE306
:1042500095E00E945A205ECFE1E4F5E082E592E02D
:10426000918380838CE592E0918F808F8CE692E041
:10427000978386838FE695E00E94CE1651CFCF9329
:10428000DF9340E050E0BA018AED94E00E94002004
:1042900068E28DE195E00E94DF1B8823B1F161E0C7
:1042A0008AED94E00E94DC0970E060E08AED94E021
:1042B0000E948012EAEDF4E01586148617861686B1
:1042C0008FEF9FEF938B828B918B808B63E0CF017D
:1042D0000E94780E6CE773E08AED94E00E94271E3E
:1042E00061E08AED94E00E94780E63E68AE295E050
:1042F0000E94C31B882399F067EA73E08AED94E07B
:104300000E94271EC2E4D2E21BC064EF71E080E08D
:1043100090E00E94C80781E090E00E940A2966E8C8
:1043200073E08AED94E00E94271E64EF71E080E064
:1043300090E00E94C80782E090E00E940A296496FB
:10434000C7328AE2D807DCF5BE018AE295E00E9416
:10435000761A8AE295E00E94AB1A80912E058C3382
:1043600070F36EEC73E08AED94E00E940B1DBE01C9
:104370000D2E000C880B990B0E94882620E030E05F
:1043800048EC52E40E942128AB01BC0122E030E05D
:104390008AED94E00E94241E6CED73E08AED94E0B7
:1043A0000E940B1D4AE050E060912E058AED94E0DA
:1043B0000E94B31C8AED94E00E94FF1CC0CF68EFFE
:1043C00073E08AED94E00E940B1D22E030E046E6A7
:1043D00056E66FEA72E48AED94E00E94241E68E1DA
:1043E00074E08AED94E00E940B1D8AED94E00E9437
:1043F000FF1C40E063E78AE295E00E94141B62E440
:1044000072E28AE295E00E94201B8AE295E00E9417
:10441000AB1ACAE2D5E08B818093D904CE010E9409
:10442000EA1A8D818093D8048E818093D704DF911E
:10443000CF9108958FE194E00E943F2108950E945A
:1044400040070E941A220E94B01E0E94A705FBCFBF
:104450001F920F920FB60F9211240BB60F922F934B
:104460003F934F935F936F937F938F939F93AF93FC
:10447000BF93EF93FF938FEA95E00E940E05FF91A3
:10448000EF91BF91AF919F918F917F916F915F91CC
:104490004F913F912F910F900BBE0F900FBE0F9039
:1044A0001F9018951F920F920FB60F9211240BB602
:1044B0000F922F938F939F93AF93BF93EF93FF939D
:1044C000E091BF05F091C005808182FD14C0EFEA44
:1044D000F5E0A689B7892C91818D8F5F8F73928DBE
:1044E000891771F0DF01E18DF0E0E155FA4F258F7A
:1044F00059968C9305C0E091C505F091C605808161
:10450000FF91EF91BF91AF919F918F912F910F905C
:104510000BBE0F900FBE0F901F9018951F920F9219
:104520000FB60F9211240F931F932F933F934F9326
:104530005F936F937F938F939F93AF93BF930091FC
:10454000A7051091A8052091A9053091AA05909181
:10455000A605B901A8014F5F5F4F6F4F7F4F83E002
:10456000890F8D3740F086E8890FB901A8014E5FA9
:104570005F4F6F4F7F4F8093A6054093A7055093E1
:10458000A8056093A9057093AA058091AB05909149
:10459000AC05A091AD05B091AE050196A11DB11D70
:1045A0008093AB059093AC05A093AD05B093AE0599
:1045B000BF91AF919F918F917F916F915F914F913B
:1045C0003F912F911F910F910F900FBE0F901F9051
:1045D00018956FEF7FEF90E080E00E9475200895BE
:1045E0001F920F920FB60F9211240F900FBE0F90D3
:1045F0001F9018951F920F920FB60F9211240BB6B1
:104600000F922F933F934F935F936F937F938F936B
:104610009F93AF93BF93EF93FF93E091B900E87F2F
:10462000E93C08F0D7C0F0E08827E65EFC4D8F4FEC
:104630000C94EE28E124EA23EA23EA23EA23EA237E
:10464000EA23EA23E323EA23EA23EA23EA23EA2309
:10465000EA23EA23E323EA23EA23EA23EA23EA23F9
:10466000EA23EA23FD23EA23EA23EA23EA23EA23CF
:10467000EA23EA232324EA23EA23EA23EA23EA2398
:10468000EA23EA23FD23EA23EA23EA23EA23EA23AF
:10469000EA23EA232924EA23EA23EA23EA23EA2372
:1046A000EA23EA232F24EA23EA23EA23EA23EA235C
:1046B000EA23EA234124EA23EA23EA23EA23EA233A
:1046C000EA23EA236B24EA23EA23EA23EA23EA2300
:1046D000EA23EA233524EA23EA23EA23EA23EA2326
:1046E000EA23EA234F24EA23EA23EA23EA23EA23FC
:1046F000EA23EA236E24EA23EA23EA23EA23EA23CD
:10470000EA23EA236E24EA23EA23EA23EA23EA23BC
:10471000EA23EA236E24EA23EA23EA23EA23EA23AC
:10472000EA23EA236E24EA23EA23EA23EA23EA239C
:10473000EA23EA237724EA23EA23EA23EA23EA2383
:10474000EA23EA23A824EA23EA23EA23EA23EA2342
:10475000EA23EA237724EA23EA23EA23EA23EA2363
:10476000EA23EA23A824EA23EA23EA23EA23EA2322
:10477000EA23EA238F24EA23EA23EA23EA23EA232B
:10478000EA23EA23AC24EA23EA23EA23EA23EA23FE
:10479000EA23EA23AC24EA23EA23EA23EA23EA23EE
:1047A000EA23EA23C124EA23EA23EA23EA23EA23C9
:1047B000EA23EA23DB24EA23EA23EA23EA23EA239F
:1047C000EA23EA23DB2480918E048093BB0081E0FE
:1047D0000E94CD17FF91EF91BF91AF919F918F9163
:1047E0007F916F915F914F913F912F910F900BBEF1
:1047F0000F900FBE0F901F90189590918D0480918F
:104800008C04981768F080916B04811119C081E0C5
:1048100080936A0484EA8093BC0010926904DACF22
:10482000E0918D0481E08E0F80938D04F0E0E459D7
:10483000FB4F80818093BB0081E00E94CD17CACFDF
:104840000E94C317C7CF80E2809368040E94C317F9
:10485000C1CF80E3809368040E94C317BBCF88E375
:10486000809368040E94BD17B5CFE0918D0481E06C
:104870008E0F80938D04F0E08091BB00E459FB4FD4
:10488000808390918D0480918C04981720F481E0AE
:104890000E94CD179FCF80E00E94CD179BCFE09163
:1048A0008D0481E08E0F80938D04F0E08091BB0039
:1048B000E459FB4F808380916B04811109C081E032
:1048C00080936A0484EA8093BC001092690482CFCA
:1048D0000E94C3177FCF0E94C3177CCF83E08093D1
:1048E00069041092670481E00E94CD1773CF809114
:1048F0006704803280F4E091670481E08E0F80933A
:104900006704F0E08091BB00E95BFB4F808381E0AE
:104910000E94CD175FCF80E00E94CD175BCF0E9431
:10492000BD1780916704803230F4E0916704F0E0B5
:10493000E95BFB4F10826091670470E0E0914504F1
:10494000F091460487E494E019951092670442CFF1
:1049500080E00E94CD173ECF84E0809369041092DE
:10496000440410924304E0914104F09142041995EB
:1049700080914304811105C081E08093430410922B
:104980002104E091440481E08E0F80934404F0E020
:10499000EF5DFB4F80818093BB0090914404809138
:1049A0004304981720F481E00E94CD1713CF80E0D4
:1049B0000E94CD170FCF81E00E94CD17109269049D
:1049C00009CF109268040E94C31704CF0E941A06F0
:1049D0000E94F8140E9439170C945E170F931F93CE
:1049E000CF93DF93009759F46115710541F4F0E01E
:1049F000E0E0CF01DF91CF911F910F9108958B01DE
:104A0000EC016EE070E081E090E00E943925FC014D
:104A1000892B69F380E883830115110571F01387F1
:104A2000028781E8838380914C0690914D06892B03
:104A300021F4F0934D06E0934C062097D1F2D187F4
:104A4000C08783818260838380914E0690914F0658
:104A5000892B79F6F0934F06E0934E06809150062D
:104A600090915106892B29F6F0935106E093500658
:104A7000C0CF0F931F93CF93DF93869F8001879FB3
:104A8000100D969F100D1124C8010E945525EC01B0
:104A9000009729F0A80170E060E00E947A26CE011C
:104AA000DF91CF911F910F9108950F931F93CF9393
:104AB000DF938230910510F482E090E0E09154069B
:104AC000F091550630E020E0B0E0A0E0309799F496
:104AD0002115310509F44AC0281B390B2430310552
:104AE000D8F58A819B816115710589F1FB0193835A
:104AF0008283FE0111C040815181028113814817D8
:104B00005907E0F04817590799F4109761F0129689
:104B10000C93129713961C933296CF01DF91CF918D
:104B20001F910F9108950093540610935506F4CFEA
:104B30002115310551F04217530738F0A901DB0167
:104B40009A01BD01DF01F801C1CFEF01F9CF9093C8
:104B5000550680935406CDCFFE01E20FF31F8193DB
:104B600091932250310939832883D7CF209152065F
:104B700030915306232B41F420910202309103021D
:104B80003093530620935206209100023091010287
:104B90002115310541F42DB73EB7409104025091E3
:104BA0000502241B350BE0915206F0915306E217E3
:104BB000F307A0F42E1B3F0B2817390778F0AC0140
:104BC0004E5F5F4F2417350748F04E0F5F1F50931D
:104BD000530640935206819391939FCFF0E0E0E01B
:104BE0009CCFCF93DF930097E9F0FC0132971382BB
:104BF0001282A0915406B0915506ED0130E020E0FC
:104C00001097A1F420813181820F931F20915206C9
:104C1000309153062817390709F061C0F093530605
:104C2000E0935206DF91CF910895EA01CE17DF0796
:104C3000E8F54A815B819E0141155105B1F7E90113
:104C4000FB83EA8349915991C40FD51FEC17FD07E7
:104C500061F4808191810296840F951FE901998307
:104C60008883828193819B838A83F0E0E0E01296BF
:104C70008D919C9113970097B9F52D913C911197C7
:104C8000CD010296820F931F209152063091530658
:104C90002817390739F6309751F5109255061092BA
:104CA0005406B0935306A0935206BCCFD383C2835D
:104CB00040815181840F951FC817D90761F44E5F59
:104CC0005F4F88819981480F591F518340838A81A2
:104CD0009B81938382832115310509F0B0CFF09336
:104CE0005506E09354069ECFFD01DC01C0CF138230
:104CF0001282D7CFDC0101C06D9341505040E0F7E4
:104D000008950E94C32608F481E00895E89409C03C
:104D100097FB3EF490958095709561957F4F8F4FEE
:104D20009F4F9923A9F0F92F96E9BB279395F69504
:104D3000879577956795B795F111F8CFFAF4BB0F82
:104D400011F460FF1BC06F5F7F4F8F4F9F4F16C0E6
:104D5000882311F096E911C0772321F09EE8872F70
:104D6000762F05C0662371F096E8862F70E060E02C
:104D70002AF09A95660F771F881FDAF7880F9695A5
:104D8000879597F90895990F0008550FAA0BE0E849
:104D9000FEEF16161706E807F907C0F012161306FD
:104DA000E407F50798F0621B730B840B950B39F43D
:104DB0000A2661F0232B242B252B21F408950A26A3
:104DC00009F4A140A6958FEF811D811D08950E94D1
:104DD000FA260C946B270E945D2738F00E94642706
:104DE00020F0952311F00C9454270C945A27112489
:104DF0000C949F270E947C2770F3959FC1F3950F19
:104E000050E0551F629FF001729FBB27F00DB11D4E
:104E1000639FAA27F00DB11DAA1F649F6627B00DDE
:104E2000A11D661F829F2227B00DA11D621F739FC7
:104E3000B00DA11D621F839FA00D611D221F749FD5
:104E40003327A00D611D231F849F600D211D822F1C
:104E5000762F6A2F11249F5750409AF0F1F0882343
:104E60004AF0EE0FFF1FBB1F661F771F881F915070
:104E70005040A9F79E3F510580F00C9454270C94A4
:104E80009F275F3FE4F3983ED4F386957795679527
:104E9000B795F795E7959F5FC1F7FE2B880F911D9A
:104EA0009695879597F9089597F99F6780E870E040
:104EB00060E008959FEF80EC089500240A94161690
:104EC000170618060906089500240A9412161306F8
:104ED000140605060895092E0394000C11F4882386
:104EE00052F0BB0F40F4BF2B11F460FF04C06F5FA2
:104EF0007F4F8F4F9F4F089557FD9058440F551F78
:104F000059F05F3F71F04795880F97FB991F61F04B
:104F10009F3F79F087950895121613061406551FC2
:104F2000F2CF4695F1DF08C0161617061806991F2E
:104F3000F1CF86957105610508940895E894BB2723
:104F400066277727CB0197F90895A29FB001B39FF9
:104F5000C001A39F700D811D1124911DB29F700D82
:104F6000811D1124911D08955058BB27AA270E9426
:104F7000CC270C946B270E945D2738F00E94642791
:104F800020F039F49F3F19F426F40C945A270EF4BC
:104F9000E095E7FB0C945427E92F0E947C2758F3F7
:104FA000BA17620773078407950720F079F4A6F50E
:104FB0000C949E270EF4E0950B2EBA2FA02D0B011A
:104FC000B90190010C01CA01A0011124FF27591B4E
:104FD00099F0593F50F4503E68F11A16F040A22F54
:104FE000232F342F4427585FF3CF469537952795C5
:104FF000A795F0405395C9F77EF41F16BA0B620BC4
:10500000730B840BBAF09150A1F0FF0FBB1F661F0A
:10501000771F881FC2F70EC0BA0F621F731F841F4D
:1050200048F4879577956795B795F7959E3F08F073
:10503000B0CF9395880F08F09927EE0F9795879535
:1050400008950E9435280C946B270E94642758F01D
:105050000E945D2740F029F45F3F29F00C9454270B
:1050600051110C949F270C945A270E947C2768F3B7
:105070009923B1F3552391F3951B550BBB27AA2711
:1050800062177307840738F09F5F5F4F220F331F4B
:10509000441FAA1FA9F335D00E2E3AF0E0E832D013
:1050A00091505040E695001CCAF72BD0FE2F29D016
:1050B000660F771F881FBB1F261737074807AB07E8
:1050C000B0E809F0BB0B802DBF01FF2793585F4F5D
:1050D0003AF09E3F510578F00C9454270C949F278A
:1050E0005F3FE4F3983ED4F3869577956795B7953F
:1050F000F7959F5FC9F7880F911D9695879597F94A
:105100000895E1E0660F771F881FBB1F62177307C2
:105110008407BA0720F0621B730B840BBA0BEE1FD7
:1051200088F7E09508950E94842788F09F5798F0AB
:10513000B92F9927B751B0F0E1F0660F771F881F9C
:10514000991F1AF0BA95C9F714C0B13091F00E94B6
:105150009E27B1E008950C949E27672F782F88270B
:10516000B85F39F0B93FCCF3869577956795B395DD
:10517000D9F73EF490958095709561957F4F8F4F4C
:105180009F4F08950E94C32608F48FEF08950E9450
:10519000C326880B990B0895A1E21A2EAA1BBB1BEC
:1051A000FD010DC0AA1FBB1FEE1FFF1FA217B307F3
:1051B000E407F50720F0A21BB30BE40BF50B661F09
:1051C000771F881F991F1A9469F7609570958095CD
:1051D00090959B01AC01BD01CF010895EE0FFF1F1B
:1051E000881F8BBF0790F691E02D19940E94A52788
:1051F000332312F48A1B9B0B0C9400290E94A527D1
:10520000B7FF0895821B930B089581E090E0F89416
:105210000C940A2914E0CAE9D4E000E006C0802F0B
:10522000FE010E94EE282196011DCB39D10780E0B6
:085230000807A9F7F894FFCF6D
:105238000000560680001400000000000000000076
:10524800ECFFECFF000000000000000000003C182C
:105258000C18BA1767178B17771768170000000024
:105268007C161C1F7B167816751672166F16851518
:1052780081157E156915F11531152F1518000000D7
:10528800000093160C1FE8FFE8FF00007D16F31ED0
:105298008E020C021602980200000000B4161F1FAE
:1052A8007B167816751672166F16631627160D1666
:1052B800F315F115AF158815140000000000CE167F
:1052C800D91EECFFECFF0000E016B81E000000003D
:1052D800B610E905BA17F414271F8C1384135C134E
:1052E80078136C138D135B13500E4F0E2113E712B6
:1052F8009D1280121112B11100000000B610E905CC
:10530800BA17F414430A3C0E010E7D0DDF0C2E0D66
:105318008D13310E500E250AF50B6A0C600B8012A6
:105328001112B111271F271F00000000B610E90550
:10533800BA17F414430A3C0E010E7D0DDF0C2E0D36
:105348008D13310EDC09D109F50B6A0C600B801244
:105358001112B1110020C808000000003005E9054D
:10536800CE047A050105DF04F3040D0A006E616EB0
:1053780000696E66006F7666004375727220414E52
:10538800542063617061636974616E63653A2000DB
:1053980043757272204153513A2030780043757238
:1053A8007220496E4C6576656C3A200047414D2065
:1053B800526164696F00436F756C646E2774206670
:1053C800696E6420536934373133207472616E73A7
:1053D800636569766572005363616E6E696E6720F6
:1053E800666F722062726F616463617374696E675D
:1053F8002073746174696F6E73202E2E2E004272B2
:105408006F6164636173742061742000204D687A51
:105418002C2043757272656E74204E6F6973652017
:105428004C6576656C3A20000A54756E696E672083
:10543800696E746F2064656661756C742066726548
:0E5448007175656E63792000204D687A0A0048
:00000001FF
