:020000040000FA
:100000000C949B040C94CC040C94CC040C94CC0461
:100010000C94CC040C94CC040C94CC040C94CC0420
:100020000C94CC040C94E7230C94E7230C94E72362
:100030000C94CC040C94CC040C94CC040C94CC0400
:100040000C94CC040C94CC040C94CC040C94CC04F0
:100050000C94CC040C94CC040C94CC040C948C2301
:100060000C94CC040C9450230C9426230C94CC04B4
:100070000C94CC040C94CC040C94CC040C94CC04C0
:100080000C94CC040C94CC040C94CC040C94CC04B0
:100090000C94CC040C94CC040C94CC040C94F82355
:1000A0000C94CC040C94CC040C94CC040C94CC0490
:1000B0000C94CC040C94CC040C94CC040C94CC0480
:1000C0000C94CC040C94CC040C94CC040C94CC0470
:1000D0000C94CC040C94CC040C94CC040C94CC0460
:1000E0000C94CC040C9470130C94AB130C94CC06AD
:1000F0000C9460120C94CE040C94F6060C947525A6
:100100000C94B8060C946F0D0C941D0A0C94DF042B
:100110000C9407070C94E3160C940C180C943121E2
:100120000C94D8060C94F0060C94DF250C94E91F6F
:100130000C94BB130C94DE060C943F250C9404170E
:100140000C94C9170C9404230C94A6250C94C8167F
:100150000C94D1150C9458200C9401050C945D1648
:100160000C940A200C94BF160C9443150C94120A9C
:100170000C94D3130C94CB160C946C250C94BA17D6
:100180000C947D0E0C94DB130C948E180C94900E32
:100190000C94E1240C94720E0C94AC060C94B817D9
:1001A0000C94660A0C94AA250C94D9250C94CF12B1
:1001B0000C9421250C94FC060C94BF250C94B206DB
:1001C0000C94DD170C9400120C94C5160C94C20606
:1001D0000C9409090C9441160C94EC120C94CE1555
:1001E0000C9481150C94B3160C9430170C94F304F2
:1001F0000C9470170C94B9170C94840A0C94200D6D
:100200000C947F150C944B170C9443160C94AA1362
:100210000C9477160C94FF150C943D200C94361317
:100220000C9450200C94420E0C9427250C94B71774
:100230000C94A10B0C94F1230C94BE0D0C94AB0CFC
:100240000C9433250C94CC160C94360C0C94C216DA
:100250000C94C7130C942D250C94FE100C94D515FA
:100260000C944D250C94E8240C944D200C94C60657
:100270000C94EA060C94D2060C9430050C94E40617
:100280000C9469250C942A060C9402070C941E17F2
:100290000C947A050C945E180C94BE060C94CD1642
:1002A0000C94D8150C94B9150C948D250C94FB2442
:1002B0000C94DC130C94910E0C942420000000008C
:1002C000003E5B4F5B3E3E6B4F6B3E1C3E7C3E1CDC
:1002D000183C7E3C181C577D571C1C5E7F5E1C0022
:1002E000183C1800FFE7C3E7FF0018241800FFE7D9
:1002F000DBE7FF30483A060E2629792926407F059C
:100300000507407F05253F5A3CE73C5A7F3E1C1CB1
:1003100008081C1C3E7F14227F22145F5F005F5F71
:1003200006097F017F006689956A6060606060945D
:10033000A2FFA29408047E040810207E2010080862
:100340002A1C08081C2A08081E101010100C1E0C6D
:100350001E0C30383E3830060E3E0E0600000000FF
:100360000000005F00000007000700147F147F14E6
:10037000242A7F2A1223130864623649562050002B
:1003800008070300001C2241000041221C002A1C17
:100390007F1C2A08083E0808008070300008080802
:1003A0000808000060600020100804023E51494522
:1003B0003E00427F400072494949462141494D3340
:1003C0001814127F1027454545393C4A49493141A7
:1003D000211109073649494936464949291E000075
:1003E00014000000403400000008142241141414CA
:1003F0001414004122140802015909063E415D59B6
:100400004E7C1211127C7F494949363E41414122BE
:100410007F4141413E7F494949417F090909013EE8
:10042000414151737F0808087F00417F410020400F
:10043000413F017F081422417F404040407F021C21
:10044000027F7F0408107F3E4141413E7F09090938
:10045000063E4151215E7F09192946264949493204
:1004600003017F01033F4040403F1F2040201F3FCA
:100470004038403F6314081463030478040361594F
:10048000494D43007F414141020408102000414191
:10049000417F04020102044040404040000307083D
:1004A0000020545478407F28444438384444442839
:1004B000384444287F385454541800087E090218E0
:1004C000A4A49C787F0804047800447D4000204068
:1004D000403D007F1028440000417F40007C0478AC
:1004E00004787C080404783844444438FC182424F4
:1004F0001818242418FC7C08040408485454542474
:1005000004043F44243C4040207C1C2040201C3CF0
:100510004030403C44281028444C9090907C4464E7
:10052000544C44000836410000007700000041367A
:10053000080002010204023C2623263C1EA1A16100
:10054000123A4040207A3854545559215555794132
:100550002254547842215554784020545579400C07
:100560001E527212395555555939545454593955EA
:100570005454580000457C410002457D420001452D
:100580007C407D1211127DF0282528F07C545545C1
:10059000002054547C547C0A097F4932494949322D
:1005A0003A4444443A324A4848303A4141217A3A3E
:1005B00042402078009DA0A07D3D4242423D3D400A
:1005C00040403D3C24FF2424487E4943662B2FFCB9
:1005D0002F2BFF0929F620C0887E09032054547967
:1005E000410000447D413048484A32384040227A38
:1005F000007A0A0A727D0D19317D2629292F2826B5
:100600002929292630484D402038080808080808BC
:100610000808382F10C8ACBA2F102834FA00007B15
:10062000000008142A142222142A14085500550028
:1006300055AA55AA55AAFF55FF55FF000000FF0017
:10064000101010FF00141414FF001010FF00FF1012
:1006500010F010F0141414FC001414F700FF000044
:10066000FF00FF1414F404FC141417101F10101FC3
:10067000101F1414141F00101010F0000000001FB1
:10068000101010101F10101010F010000000FF10BC
:100690001010101010101010FF10000000FF1400B8
:1006A00000FF00FF00001F10170000FC04F41414EA
:1006B0001710171414F404F40000FF00F7141414B6
:1006C00014141414F700F7141414171410101F1036
:1006D0001F141414F4141010F010F000001F101F59
:1006E0000000001F14000000FC140000F010F010C7
:1006F00010FF10FF141414FF141010101F0000003E
:1007000000F010FFFFFFFFFFF0F0F0F0F0FFFFFF41
:100710000000000000FFFF0F0F0F0F0F3844443898
:1007200044FC4A4A4A347E02020606027E027E02E7
:1007300063554941633844443C04407E201E2006F2
:10074000027E020299A5E7A5991C2A492A1C4C722F
:1007500001724C304A4D4D303048784830BC625AB6
:10076000463D3E494949007E0101017E2A2A2A2A46
:100770002A44445F444440514A444040444A514022
:100780000000FF0103E080FF000008086B6B0836E3
:1007900012362436060F090F060000181800000054
:1007A0001010003040FF0101001F01011E00191D43
:1007B0001712003C3C3C3C0000000000EF030380AB
:1007C00002CF0300C130ED0464031281E803850009
:1007D00078CB05392C003402F70120EA020000C072
:1007E0000123C10110C5023E28C7018636014837E2
:1007F00001003A0155B1020018B603088227F20140
:1008000000260101E00F0F312B0C0E084EF13707C7
:1008100010030E0900E10F000E1403110731C14847
:10082000080F0C31360F11802980000000210024B0
:100830000027002A002D00300033000101000004D1
:100840000107010A0100002200250028002B002ECC
:10085000003100340002010000050108010B010510
:10086000050505070508080808020202020A0A0829
:10087000080404040401010101010101010303034F
:100880000303030303040707070C0C0C0C0C0C0CEC
:100890000C0202020206060606060606060B0B0BF3
:1008A0000B0B0B0B0B01021020200808102040102E
:1008B0002040800201020108040201010204081024
:1008C0002040808040201008040201800402018042
:1008D000402010080402010804020101020408106B
:1008E000204080010204081020408000000A0B0212
:1008F000090C0D0E080703040100000000000000B1
:1009000000000000000000000000000000000000E7
:1009100000000000000000121110000000000000A4
:1009200000000000000000000000000000000000C7
:1009300000000423F12311241FBECFEFD1E2DEBF5C
:10094000CDBF00E00CBF13E0A0E0B2E0E8E9F4E5C1
:1009500000E00BBF02C007900D92A23AB107D9F791
:1009600025E0A2EAB3E001C01D92A83DB207E1F77D
:1009700014E0CAE9D4E000E006C021970109802F05
:10098000FE010E941E2AC939D10780E00807A9F795
:100990000E941D230C943A2A0C940000FC01938DB4
:1009A000848D981720F4891B990B019708952FE3E4
:1009B00030E0291B3109820F932F911D0895FC010E
:1009C000918D828D981761F0A28DAE0FBF2FB11D52
:1009D0005D968C91928D9F5F9F73928F90E00895AA
:1009E0008FEF9FEF0895FC01918D828D981731F064
:1009F000828DE80FF11D858D90E008958FEF9FEFB8
:100A00000895FC01218D30E0205C3F4F828DA901CB
:100A1000481B5109CA018F7399270895FC01A48DC1
:100A2000A80FB92FB11DA35ABF4F2C91848D90E010
:100A300001968F739078848FA689B7892C93A089AB
:100A4000B1898C91837080648C93938D848D98137D
:100A500008950288F389E02D80818F7D8083F8CF0F
:100A60000F931F93CF93DF93EC0181E0888F9B8DD1
:100A70008C8D9817B1F0062F8B8D90E001968F73B7
:100A80009078182F8C8D81131EC00FB607FCFACFFB
:100A9000E889F989808185FFF5CFCE010E940E0596
:100AA000F1CFE889F989808185FFE5CF9FB7F89478
:100AB000EE89FF896083E889F98980818370806489
:100AC00080839FBF10C0EB8DEC0FFD2FF11DE35A0B
:100AD000FF4F00839FB7F8941B8FEA89FB898081C1
:100AE000806280839FBF81E090E0DF91CF911F9172
:100AF0000F910895CF93DF93EC01888D811104C08D
:100B00000DC00FB607FE0DC0EA89FB89808185FD07
:100B1000F8CFA889B9898C9186FFF3CFDF91CF9167
:100B20000895808185FFF0CFE889F989808185FF6C
:100B3000EBCFCE010E940E05E7CF81E395E00E9446
:100B4000010521E0892B09F420E0822F089580E03F
:100B500090E0892B21F00E949D05811125C080E045
:100B600090E0892B41F080E090E0892B21F00E94F9
:100B7000000081111CC080E090E0892B41F080E0F2
:100B800090E0892B21F00E940000811113C080E0C9
:100B900090E0892B41F080E090E0892B21F00E94C9
:100BA000000081110AC008950E940000D8CF0E9461
:100BB0000000E1CF0E940000EACF0E940000F3CFC6
:100BC00008954F925F926F927F92AF92BF92CF92B1
:100BD000DF92EF92FF920F931F93CF93DF93CDB7E6
:100BE000DEB729013A019B01AC01241935094609F8
:100BF00057098A899B89AC89BD89BC01CD016A19D5
:100C00007B098C099D090E940E2AA80197012419CD
:100C10003509460957090E949B28CA01B9016A0D86
:100C20007B1D8C1D9D1DDF91CF911F910F91FF901A
:100C3000EF90DF90CF90BF90AF907F906F905F90DC
:100C40004F900895DC01ED91FC910190F081E02D31
:100C500019950895CF92DF92EF92FF920F931F9311
:100C6000CF93DF938C01DB01D0E0C0E07A0181E01B
:100C7000E81AF108452BA1F0F80180819181FC016F
:100C8000208131816D01FFEFCF1ADF0A6C91C8011D
:100C9000F9011995892B21F02196A701D601E6CFFC
:100CA000CE01DF91CF911F910F91FF90EF90DF90D8
:100CB000CF9008950895019709F008956F3F7F4FF1
:100CC000E1F7E1E3F5E01382128288EE93E0A0E021
:100CD000B0E084839583A683B7838CE293E091830D
:100CE000808385EC90E09587848784EC90E09787FB
:100CF000868780EC90E0918B808B81EC90E0938BE9
:100D0000828B82EC90E0958B848B86EC90E0978BC5
:100D1000868B118E128E138E148ECFCF815082311E
:100D200008F075C0E82FF0E08827E656F94F8F4F9E
:100D30000C941E2ABE06C206AC06B206B806070709
:100D4000C606CC06D206D806DE06E406EA06F0069B
:100D50000707F606FC060207E0E8F0E080818F77DF
:100D600080830895E0E8F0E080818F7D808308959E
:100D7000E0E8F0E08081877F8083089584B58F77F5
:100D800084BD089584B58F7D84BD0895E0EBF0E0C7
:100D900080818F7780830895E0EBF0E080818F7D04
:100DA00080830895E0E9F0E080818F778083089563
:100DB000E0E9F0E080818F7D80830895E0E9F0E054
:100DC0008081877F80830895E0EAF0E080818F77DB
:100DD00080830895E0EAF0E080818F7D808308952C
:100DE000E0EAF0E08081877F80830895E0E2F1E02F
:100DF00080818F7780830895E0E2F1E080818F7DAC
:100E000080830895E0E2F1E08081877F8083089508
:100E10001F93CF93DF93282F30E0F901E551F74F6F
:100E20008491F901EB55F74F1491F901E15AF74F0D
:100E3000C491CC23A9F0D62F811116C0EC2FF0E07D
:100E4000EE0FFF1FEB5BF74FA591B4918FB7F894AE
:100E5000D1110DC09C91E12FE095E923EC938FBF58
:100E6000DF91CF911F9108950E948E06E7CFEC91FC
:100E7000E12BEC93F4CFCF93DF9390E0FC01EB55A3
:100E8000F74F2491815A974FFC018491882319F1DF
:100E900090E0880F991FFC01E55DF74FA591B49193
:100EA000FC01EB5BF74FC591D491662349F06230AA
:100EB000A9F08FB7F894EC91E22BEC938FBF0BC0A5
:100EC0009FB7F8948C91E22FE0958E238C938881C4
:100ED000E823E8839FBFDF91CF9108959FB7F894EF
:100EE0003C91822F809583238C93E881E22BE883C9
:100EF0009FBFF1CF789484B5826084BD84B5816052
:100F000084BD85B5826085BD85B5816085BDEEE611
:100F1000F0E0808181608083E1E8F0E010828081F0
:100F200082608083808181608083E0E8F0E080815E
:100F300081608083E1EBF0E0808184608083E0EB7E
:100F4000F0E0808181608083E1E9F0E0808182606F
:100F50008083808181608083E0E9F0E0808181602E
:100F60008083E1EAF0E0808182608083808181601B
:100F70008083E0EAF0E0808181608083E1E2F1E05B
:100F8000808182608083808181608083E0E2F1E003
:100F9000808181608083EAE7F0E0808184608083E3
:100FA000808182608083808181608083808180688D
:100FB00080831092C10008953FB7F89480912D0569
:100FC00090912E05A0912F05B091300526B5A89BD4
:100FD00005C02F3F19F00196A11DB11D3FBFBA2FCB
:100FE000A92F982F8827BC01CD01620F711D811D8B
:100FF000911D660F771F881F991F660F771F881F27
:10100000991F08958F929F92AF92BF92CF92DF92D5
:10101000EF92FF926B017C010E94DC074B015C01A7
:101020001BC021E0C21AD108E108F10888EE880E41
:1010300083E0981EA11CB11CC114D104E104F10489
:1010400059F00E94DC07681979098A099B09683EF2
:1010500073408105910528F7C114D104E104F1041E
:1010600059F7FF90EF90DF90CF90BF90AF909F9097
:101070008F900895FC01A685B7859C91858589236D
:101080000895CF93DF93EC018F811816DCF461E0B3
:101090000E943B0761E08F810E9408076AE070E0D0
:1010A00080E090E00E94020860E08F810E940807C3
:1010B0006AE070E080E090E00E94020861E08F81C9
:1010C0000E940807DF91CF910895FC01678308957E
:1010D000FC0185A9811109C07EBD0DB407FEFDCFBD
:1010E0006EBD0DB407FEFDCF08958130F9F0A78DD8
:1010F000B0A17C93A5A1B6A18C9192A589238C93D4
:10110000A5A1B6A18C9191A5892B8C93A78DB0A197
:101110006C93A5A1B6A18C9192A589238C93A5A1CE
:10112000B6A18C9191A5892B8C93089590E015C060
:10113000A1A1B2A18C9126A182238C93A3A1B4A1D9
:101140008C9127A1822B8C93A3A1B4A18C9120A573
:1011500082238C93660F771F9F5F903130F7772340
:101160003CF7A1A1B2A18C9125A1822B8C93E6CF53
:10117000FC0185A9811105C06EBD0DB407FEFDCF30
:101180000895813081F0A78DB0A16C93A5A1B6A17F
:101190008C9192A589238C93A5A1B6A18C9191A540
:1011A000892B8C93089590E014C0A1A1B2A18C91D9
:1011B00025A1822B8C93A3A1B4A18C9127A1822B72
:1011C0008C93660FA3A1B4A18C9120A582238C934C
:1011D0009F5F983038F7662344F3A1A1B2A18C91A8
:1011E00026A182238C93E7CFCF93DF93EC01ED8D83
:1011F000FE8D80819CA989238083CE010E94B8083E
:10120000ED8DFE8D80819BA9892B8083DF91CF910D
:101210000895AF92BF92CF92DF92EF92FF920F9319
:101220001F93CF93DF93EC015B016A01260F371FF9
:10123000790181E0E81AF108040F151F0150110926
:101240006AE2CE010E94F408B501CE010E9468084E
:10125000B701CE010E9468086BE2CE010E94F4083B
:10126000B601CE010E946808B801CE010E9468084C
:101270006CE2CE010E94F408DF91CF911F910F9193
:10128000FF90EF90DF90CF90BF90AF900895BF9206
:10129000CF92DF92EF92FF920F931F93CF93DF9342
:1012A0006C01EA01B22EDC01D5968C91D59788238A
:1012B000B9F1F60187A988234CF0038CF48DE02D59
:1012C0008081D601D2969C9189238083D6015D9638
:1012D000ED91FC915E978081D4969C9189238083C7
:1012E000C6010E94B808D6015D96ED91FC915E970B
:1012F0008081D3969C91892B808310E000E0B0160A
:101300001106B1F0ACF07E01BFEFEB1AFB0AFE0153
:101310006491C6010E94B8080F5F1F4FE701EFCF2D
:1013200091969C91919792968C919CBD8DBDC1CFC9
:10133000D601D7968C91D79788234CF05B96ED9188
:10134000FC915C978081D1969C91892B8083DF9161
:10135000CF911F910F91FF90EF90DF90CF90BF90B2
:101360000895DF92EF92FF920F931F93CF93DF9335
:101370008C017A01D22EDC01D5968C91D5978823E9
:1013800091F1F80187A988234CF0038CF48DE02DAE
:101390008081D801D2969C9189238083D8015D9663
:1013A000ED91FC915E978081D4969C9189238083F6
:1013B000C8010E94B808D8015D96ED91FC915E9736
:1013C0008081D3969C91892B8083D0E0C0E0DC168D
:1013D0001D0689F084F0F70161917F01C8010E9428
:1013E000B8082196F4CF91969C91919792968C9102
:1013F0009CBD8DBDC6CFD801D7968C91D797882339
:101400004CF05B96ED91FC915C978081D1969C911C
:10141000892B8083DF91CF911F910F91FF90EF90E7
:10142000DF900895611107C060E220E050E040E0E5
:101430000E94B109089561E2F8CFCF93DF931F9224
:10144000CDB7DEB7FC01962F69839370968B9130F0
:10145000E1F080F0923021F1933069F121E0AE01AA
:101460004F5F5F4F66E3CF010E94B1090F90DF919C
:10147000CF91089588E4898380EF90E091878087F9
:1014800080E491E093878287E9CF88E2898380E4D2
:1014900091E09187808780EF90E093878287DECF0D
:1014A00088E8898380EF90E09187808780E491E0ED
:1014B00093878287D3CF88EE898380E491E09187F8
:1014C000808780EF90E093878287C8CF1F93CF9368
:1014D000DF93EC01162FE881F9810284F385E02D7A
:1014E000199511110FC06EADCE010E94F408E8816C
:1014F000F9810688F789E02DCE011995DF91CF910A
:101500001F9108956DADF0CFAF92BF92CF92DF9251
:10151000EF92FF920F931F93CF93DF93772394F172
:10152000DC011896ED91FC9119976E177F0754F521
:10153000552344F11A96ED91FC914E175F0714F56F
:1015400079016A015B01EC01E881F9810284F3858C
:10155000E02D1995E881F98102A4F3A5E02D01E0C1
:1015600010E021E030E0A601B501CE011995B701E8
:10157000CE010E946808E881F9810688F789E02D8C
:10158000CE011995DF91CF911F910F91FF90EF90B0
:10159000DF90CF90BF90AF900895CF92DF92EF92FF
:1015A000FF92CF93DF93FC012115310541055105D1
:1015B00009F4C0C0C72F85A9811115C0DA01C9017E
:1015C0000197A109B109232B242B252B09F4B2C0C3
:1015D000CEBD0DB407FEFDCF6EBD0DB407FEFDCF31
:1015E0009C01AD01EBCF813091F1761709F480C0F9
:1015F00069017A0181E0C81AD108E108F108232BBA
:10160000242B252B09F496C0A78DB0A1CC93A5A1BE
:10161000B6A18C9192A589238C93A5A1B6A18C919A
:1016200091A5892B8C93A78DB0A16C93A5A1B6A190
:101630008C9192A589238C93A5A1B6A18C9191A59B
:10164000892B8C93A7019601D3CFA701960169013D
:101650007A0181E0C81AD108E108F108232B242B74
:10166000252B09F467C02C2F90E014C0A1A1B2A1D2
:101670008C91D5A18D2B8C93A3A1B4A18C91D7A1D2
:101680008D2B8C93A3A1B4A18C91D0A58D238C9389
:10169000220F9F5F983048F4222344F3A1A1B2A106
:1016A0008C91D6A18D238C93E7CF262F90E014C088
:1016B000A1A1B2A18C91D5A18D2B8C93A3A1B4A192
:1016C0008C91D7A18D2B8C93A3A1B4A18C91D0A583
:1016D0008D238C93220F9F5F983008F0B6CF222382
:1016E0003CF3A1A1B2A18C91D6A18D238C93E6CF1E
:1016F000DA01C901880F991FAA1FBB1FC78DD0A18E
:101700007883AC01BD014150510961097109892BF0
:101710008A2B8B2B79F0A5A1B6A18C9192A5892358
:101720008C93A5A1B6A18C9191A5892B8C93DB01FB
:10173000CA01E7CFDF91CF91FF90EF90DF90CF907C
:1017400008956F927F928F929F92AF92BF92CF92A5
:10175000DF92EF92FF920F931F93CF93DF93EC01F1
:101760006B015A012115310509F45AC00115110503
:1017700009F456C033230CF462C088859985C816D5
:10178000D9060CF04DC011230CF461C04A855B856D
:10179000A416B5060CF044C04601820E931EB40197
:1017A00061507109EAF13501600E711EF301319744
:1017B000BAF1DD200CF454C04901BB200CF453C035
:1017C0003801681779071CF04C018C189D08E41744
:1017D000F5071CF03A016A187B08E881F981028458
:1017E000F385E02DCE011995E881F98102A4F3A5D6
:1017F000E02D83019401A501B601CE011995940154
:10180000D3010E94262A9B01AC01B701CE010E94A0
:10181000CD0AE881F9810688F789E02DCE01199576
:10182000DF91CF911F910F91FF90EF90DF90CF90BC
:10183000BF90AF909F908F907F906F900895C90157
:101840000196C80ED91E31952195310996CFA80170
:101850004F5F5F4FA40EB51E11950195110996CFEC
:10186000D12CC12CAACFB12CA12CABCF8F929F929F
:10187000AF92BF92CF92DF92EF92FF920F931F939E
:10188000CF93DF937C01EB016A015801DD230CF457
:101890004AC0DC0118968D919C91681779070CF06D
:1018A00042C02115310509F43EC00CF449C0F701CE
:1018B00082859385C816D906B4F54601820E931E1B
:1018C000A401415051097AF1DD200CF441C04901D5
:1018D000481759071CF04C018C189D08D701ED9151
:1018E000FC910284F385E02DC7011995D701ED9194
:1018F000FC9102A4F3A5E02D840121E030E0A601D3
:10190000BE01C70119959401990C440B550BB50103
:10191000C7010E94CD0AD701ED91FC910688F78995
:10192000E02DC7011995DF91CF911F910F91FF9085
:10193000EF90DF90CF90BF90AF909F908F900895E1
:10194000C9010196C80ED91E319521953109AFCF35
:10195000D12CC12CBDCF8F929F92AF92BF92CF92CC
:10196000DF92EF92FF920F931F93CF93DF937C014F
:101970006B01EA015801DD230CF44AC0DC011A9620
:101980008D919C91481759070CF042C021153105E3
:1019900009F43EC00CF449C0F70180859185C81652
:1019A000D906B4F54601820E931EA4014150510997
:1019B0007AF1DD200CF441C04901481759071CF0A9
:1019C0004C018C189D08D701ED91FC910284F385A0
:1019D000E02DC7011995D701ED91FC9102A4F3A563
:1019E000E02D01E010E09401AE01B601C7011995A8
:1019F0009401990C440B550BB501C7010E94CD0A07
:101A0000D701ED91FC910688F789E02DC701199562
:101A1000DF91CF911F910F91FF90EF90DF90CF90CA
:101A2000BF90AF909F908F900895C9010196C80E06
:101A3000D91E319521953109AFCFD12CC12CBDCF05
:101A4000CF92DF92EF92FF920F931F93CF93DF938A
:101A5000EC01780177237CF18885998568177907EF
:101A600054F52115310539F17CF18A859B8548179C
:101A700059070CF56A01C20ED31EF6013197DAF050
:101A8000552354F16901E817F9071CF06C01C41AD9
:101A9000D50AE881F98102A4F3A5E02D860121E0B1
:101AA00030E0CE0119959601DD0C440B550BB701C2
:101AB000CE010E94CD0ADF91CF911F910F91FF902F
:101AC000EF90DF90CF900895C9010196480F591FFC
:101AD000319521953109C9CF50E040E0D4CFCF9264
:101AE000DF92EF92FF920F931F93CF93DF93EC015E
:101AF000780155237CF18A859B854817590754F551
:101B00002115310539F17CF18885998568177907A8
:101B10000CF56B01C20ED31EF6013197DAF0772374
:101B200054F16901E817F9071CF06C01C61AD70ACD
:101B3000E881F98102A4F3A5E02D01E010E096010F
:101B4000CE0119959601DD0C440B550BB701CE0162
:101B50000E94CD0ADF91CF911F910F91FF90EF90DE
:101B6000DF90CF900895C9010196680F791F3195D4
:101B700021953109C9CF70E060E0D4CF6F927F9298
:101B80008F929F92AF92BF92CF92DF92EF92FF928D
:101B90000F931F93CF93DF93EC012115310509F4C7
:101BA0004CC00115110509F448C033230CF454C08E
:101BB00088859985681779070CF03FC011230CF4CC
:101BC00053C0EA85FB854E175F07BCF55B01A20E8B
:101BD000B31E3501A1E06A1A71087AF14A01800E3C
:101BE000911E6401A1E0CA1AD1083AF177230CF4DE
:101BF00043C0590155230CF442C0480168167906C8
:101C00001CF05C01A61AB70ACE16DF061CF04F01C5
:101C1000841A950AE881F98102A4F3A5E02D8401D4
:101C20009501CE0119959501D4010E94262A9B01A8
:101C3000AC01B701CE010E94CD0ADF91CF911F9177
:101C40000F91FF90EF90DF90CF90BF90AF909F905B
:101C50008F907F906F900895C9010196680F791F4A
:101C6000319521953109A4CFF80131964E0F5F1FB0
:101C7000119501951109A5CF70E060E0BBCF50E050
:101C800040E0BCCFEF92FF920F931F93CF93DF936F
:101C900077230CF1DC011896ED91FC9119976E17E2
:101CA0007F07CCF45523BCF01A96ED91FC911B975D
:101CB0004E175F0784F4E9017C01ED91FC9102A4C9
:101CC000F3A5E02D01E010E021E030E01995BE0120
:101CD000C7010E946808DF91CF911F910F91FF907B
:101CE000EF900895FC0187A9882334F0A38DB48D6B
:101CF0008C9191A9892B8C930895FC0185A9882347
:101D000051F087A9882334F0A38DB48D8C9192A9CA
:101D100089238C93089591A182A19CBD8DBDF1CFA3
:101D20000895FC016370668B613079F028F06230B1
:101D300019F0633051F008958481958191878087EF
:101D4000868197819387828708958681978191877D
:101D500080878481958193878287EDCF611101C04F
:101D600061E0FC01648B411101C041E0FC01458B45
:101D70000895462F0E94AE0E08952F923F924F92E3
:101D80005F926F927F928F929F92AF92BF92CF920B
:101D9000DF92EF92FF920F931F93CF93DF93CDB714
:101DA000DEB760970FB6F894DEBF0FBECDBF9A8343
:101DB00089831B012A01922E19870887FE82ED82F2
:101DC0008C2CAF82DC0159962D913C915A972115AC
:101DD000310509F444C0F9013496E4919E1A492D65
:101DE00050E0CA01880F991F880F991F880F991F0B
:101DF000841B950BF901329645915491840F951FE0
:101E0000F90165907490FC01A590B490FC013296A4
:101E1000C4903196B491BA87329624912B8731962B
:101E2000E491EC87F1E0F81508F04DC1822F220F04
:101E3000990B9C838B83AE2FEE0FBB0BBE83AD83C0
:101E4000A981BA81ED91FC9111970284F385E02D6F
:101E5000CD01199580E01E86912CD12CA7C1189632
:101E60008D919C911997681779070CF0AEC11A965D
:101E70008D919C911B97481759070CF0A6C16C2CAB
:101E8000712CC301880F991F860D971D880F991F0C
:101E9000860F971F01970AF498C1EA2DF0E0FC83A2
:101EA000EB83EE0FFF1FEE0FFF1FEE0FFF1FFD87EF
:101EB000EC87CF01840F951F01970AF486C15896CD
:101EC0008C91811104C02FEA291508F49394A981FB
:101ED000BA81ED91FC9111970284F385E02DCD013B
:101EE0001995A12CAA869B86C884D98491C0A98102
:101EF000BA81ED91FC9111970684F785E02D692D4B
:101F00002B813C816203A001639F500D11246A9CC8
:101F1000B0016B9C700D7A9C700D1124440D551D01
:101F2000620D731D760189019301CD01199593947A
:101F30008E859F85959587959F878E87EE85F7E09F
:101F4000F9150CF462C02E2F30E03F872E87E0FF9A
:101F50001AC031E08312CBCF6F81613041F6A98185
:101F6000BA81ED91FC9111970484F585E02D9601DD
:101F7000A201490D511D97FC5A95B501620D731DC3
:101F8000CD011995D4CF8D819E81C816D90679F2DD
:101F900091E0891611F1A981BA81ED91FC91119717
:101FA0000684F785E02D692D2B813C816203A00119
:101FB000639F500D11246A9CB0016B9C700D7A9C3C
:101FC000700D1124440D551D620D731DED80FE80B2
:101FD00089019301CD011995AACFAF81A130D9F61E
:101FE000A981BA81ED91FC9111970484F585E02DCA
:101FF0002D813E81A201490D511D97FC5A95B501D5
:10200000620D731DCD01199592CF9A859F5F9A87B6
:10201000BA85B530A4F4AB2EBB0FBB08EB858E2F71
:1020200090E0FC01EE0FFF1FEE0FFF1FE80FF91FFE
:10203000EA0DFB1DE454FD4FE491912C80CFA8855F
:10204000B985ED81FE81AE17BF07E1F0F1E08F1693
:1020500021F1A981BA81ED91FC9111970684F78550
:10206000E02DB301660F771F660F771F660D771D92
:10207000620D731DED80FE800C851D859301A2010C
:10208000CD011995A981BA81ED91FC91119706882E
:10209000F789E02DCD01199598C02F812130C9F61F
:1020A000A981BA81ED91FC9111970088F189E02D09
:1020B000B1016B5F7F4F0D811E8128E030E0A201EE
:1020C000CD011995DFCF3F81323008F0AFCE1E82AF
:1020D0001D821C821B82B4CEDD20B4F0DD0C8E8507
:1020E0008F5F8E878889FE85FC1508F05EC021E031
:1020F000280F288B877081F7C5010196F301EA0D3F
:10210000FB1DD4905C01E8CF31E0831669F1A98111
:10211000BA81ED91FC910684F785E02DBF810B2FEC
:1021200010E0282D30E08D819E81890D911D089F42
:10213000A001099F500D189F500D11248B819C8187
:102140006E85860F911D289FB001299F700D389FC5
:10215000700D1124440D551D620D731DE884F98422
:1021600089819A811995BACF6F81613081F6A981F1
:10217000BA81ED91FC910484F585E02DA201BC8526
:102180004B0F511DB7FD5A95490D511DB1012B85BE
:10219000620F711D27FD7A953E85630F711D28859D
:1021A000398589819A81199599CF9394BA859B161F
:1021B00010F41E8698CFA981BA81ED91FC911197F8
:1021C0000688F789E02DCD01199560960FB6F89431
:1021D000DEBF0FBECDBFDF91CF911F910F91FF905A
:1021E000EF90DF90CF90BF90AF909F908F907F90B7
:1021F0006F905F904F903F902F9008958F929F9295
:10220000AF92CF92EF92FF920F931F93CF93DF93F2
:10221000EC01898D9A8D009709F477C06A3009F432
:10222000D0C06D3009F4DFC0FC01349624916217F0
:1022300008F4D9C03196E491E61708F4D4C0362FDB
:10224000321B232F30E04901880C991C880C991C03
:10225000880C991C821A930AFC01329625913491BC
:10226000820E931EF401329624913196E49122233A
:1022700009F43EC0EE2309F43BC0F4013596E49125
:102280000E2E000CFF0B3F89332319F14C855D8521
:102290007C89E20FF11D7E9F90017F9F300D1124FC
:1022A000240F351F488559854217530794F41D861E
:1022B0001C862D8930E00696FC018491829FA00146
:1022C000839F500D11248E859F85840F951F9F87B6
:1022D0008E87EA88FB88088919894E855F858C85F9
:1022E0009D85AD88CC88262FBC01CE010E94BD0EF5
:1022F000F4013496E4912C898C859D85E29F800DB4
:10230000911D11249D878C876EC06A3009F448C0E6
:102310006D3009F468C08F89882311F14C855D8583
:102320002C8930E0C901880F991F820F931F880FF5
:10233000991F840F951F288539852817390784F43C
:102340001D861C868D8990E0880F991F880F991F24
:10235000880F991F2E853F85820F931F9F878E8739
:10236000EA88FB88088919894E855F858C859D855B
:10237000AD88CC88262FBC01CE010E94BD0E8C8971
:10238000282F30E0C901880F991F820F931F880FF3
:10239000991F2C853D85820F931F9D878C8723C0B5
:1023A0001D861C868D8990E0880F991F880F991FC4
:1023B000880F991F2E853F85820F931F9F878E87D9
:1023C00012C01D861C862D8930E0FC013696E491F2
:1023D000E29FA001E39F500D11248E859F85840FFD
:1023E000951F9F878E8781E090E0DF91CF911F91AD
:1023F0000F91FF90EF90CF90AF909F908F900895A6
:102400006F927F928F929F92AF92BF92CF92DF9204
:10241000EF92FF920F931F93CF93DF93EC016B0129
:102420005A0139014801E881F9810284F385E02DE0
:102430001995E881F9810288F389E02D87019301DC
:10244000A501B601CE011995E881F9810288F389C9
:10245000E02DA501480D591D415051099301B601C8
:10246000CE011995E881F9810088F189E02D940168
:10247000A501B601CE011995E881F9810088F1899D
:10248000E02DC60CD71CB601615071099401A5015D
:10249000CE011995E881F9810688F789E02DCE01F2
:1024A0001995DF91CF911F910F91FF90EF90DF90E1
:1024B000CF90BF90AF909F908F907F906F90089536
:1024C0006F927F928F929F92AF92BF92CF92DF9244
:1024D000EF92FF920F931F93CF93DF93EC014B0189
:1024E0006A01390158016217730749F14017510712
:1024F000F1F1E881F9810284F385E02D1995E881F5
:10250000F9810488F589E02D9301A601B401CE017B
:102510001995E881F9810688F789E02DCE01199592
:10252000DF91CF911F910F91FF90EF90DF90CF90AF
:10253000BF90AF909F908F907F906F9008950417F9
:10254000150784F4E881F981048CF58DE02D96015E
:102550002A193B092F5F3F4F8701A501B401CE0126
:102560001995DECF8B2D5A01C02ED82EEBCF261712
:10257000370784F4E881F981068CF78DE02D94010A
:10258000261937092F5F3F4F8701A601B301CE01FE
:102590001995C6CF872D3B01822E982EEBCFEF9257
:1025A000FF920F931F93DC01ED91FC91119700A016
:1025B000F1A1E02D1A960D911C911B9718962D9163
:1025C0003C917B0150E040E070E060E019951F9184
:1025D0000F91FF90EF9008954F925F926F927F92CC
:1025E0008F929F92AF92BF92CF92DF92EF92FF9223
:1025F0000F931F93CF93DF93EC016B013A015901C5
:1026000048012701E881F9810284F385E02D1995BD
:102610007601C6018A0D9B1DE816F9067CF4E88157
:10262000F9810088F189E02D82019401A301B701AD
:10263000CE0119958FEFE81AF80AEBCFE881F981FE
:102640000688F789E02DCE011995DF91CF911F9172
:102650000F91FF90EF90DF90CF90BF90AF909F9041
:102660008F907F906F905F904F9008958F929F9280
:10267000AF92BF92CF92DF92EF92FF920F931F9390
:10268000CF93DF93EC015B014A016901E881F98195
:102690000284F385E02D1995E881F9810488F58994
:1026A000E02D95012C0D3D1D21503109780184014B
:1026B000A401B501CE011995E881F9810688F78951
:1026C000E02DCE011995DF91CF911F910F91FF90D1
:1026D000EF90DF90CF90BF90AF909F908F90089534
:1026E0008F929F92AF92BF92CF92DF92EF92FF9222
:1026F0000F931F93CF93DF93EC015B014A016901B4
:102700007801E881F9810284F385E02D1995E8814B
:10271000F9810488F589E02D84010C0D1D1D0150FF
:1027200011099501A401B501CE011995E881F9813E
:102730000688F789E02DCE011995DF91CF911F9181
:102740000F91FF90EF90DF90CF90BF90AF909F9050
:102750008F9008950895EF92FF920F931F93DC01DD
:10276000ED91FC9100A0F1A1E02D19951F910F9121
:10277000FF90EF9008950F931F93DC01ED91FC9172
:10278000068CF78DE02D19951F910F9108950F93E9
:102790001F93DC01ED91FC91048CF58DE02D1995D2
:1027A0001F910F910895DC01ED91FC910084F1855A
:1027B000E02D1995089508952F923F924F925F92C0
:1027C0006F927F928F929F92AF92BF92CF92DF9241
:1027D000EF92FF920F931F93CF93DF9300D000D01F
:1027E000CDB7DEB79A8389836A013E832D83FC824D
:1027F000EB82C801841B950B3C01D2F18D819E8137
:10280000861B970B7C01CAF1E614F7045CF0902F4D
:10281000812F0D811E819D838E839C2D8D2D6B01BB
:10282000692F782F0C151D055CF09D818E817E83AC
:102830006D83692F782F902F812F8601C92ED82E76
:102840005601A01AB10ACB012D813E81821B930B48
:102850002C01C2F04501BB20D4F0959487948D8162
:102860009E8186179707BCF422242394312C2BC019
:1028700066247724681A790AC1CFEE24FF24E81A67
:10288000F90AC2CF44245524481A590AE3CF3FEF2E
:10289000831A930AE2CF22242A94322C14C0A981ED
:1028A000BA81ED91FC9111970484F585E02D2B817F
:1028B0003C814D815E81B801CD0119958418950840
:1028C000C2F00F5F1F4FC016D106E4F0E614F70404
:1028D00034F7A981BA81ED91FC9111970484F585B3
:1028E000E02D2B813C81A8016D817E81CD01199560
:1028F000E5CF2D813E81220D331D3E832D838A0C31
:102900009B1CDFCF26960FB6F894DEBF0FBECDBF5F
:10291000DF91CF911F910F91FF90EF90DF90CF90BB
:10292000BF90AF909F908F907F906F905F904F90EF
:102930003F902F900895FC011382128280EA92E06A
:10294000918380837583648357834683718760870F
:1029500053874287168A158614861786168681E065
:10296000858B848B2FEF3FEF338B228B318B208B2A
:10297000878B108E128E118E0895AF92BF92CF92D8
:10298000EF920F931F93CF93DF93EC0159010E94B5
:102990009B148CEC92E0998388831DAACEAA0FAB7E
:1029A000E8AE1AAE19AE1CAE1BAE1DAE1EAEFE01D9
:1029B000FF961082118212821382B8A2AF8E8E2DE2
:1029C000EE0C990BFC01E15AF74FE491F0E0EE0FA9
:1029D000FF1FEB5BF74F259134913E8F2D8F8B5569
:1029E000974FFC0184918BAB002324F1002E000C47
:1029F000110BF801E15AF74FE491F0E0EE0FFF1FE1
:102A0000EB5BF74F859194919C8F8B8F0B55174FF4
:102A1000F801049109AB89A980958AAB8BA98095AF
:102A20008CABDF91CF911F910F91EF90CF90BF9022
:102A3000AF9008953C8F2B8F19AAEDCFCF92EF92D4
:102A40000F93CE2CE02E022F29E135E00E94BD1419
:102A50000F91EF90CF900895EF920F93CF93DF9364
:102A6000EC01E22E042F262F40E451E060EF70E0ED
:102A70000E941E158CEF92E099838883DF91CF919D
:102A80000F91EF9008950895FC0171836083538343
:102A90004283358324830895FC01108208951F9397
:102AA000CF93DF93EC01162F8F8580FF0BC0E88159
:102AB000F9810084F185E02D20E144E070E060E0E0
:102AC000CE011995EB85FC858D859E85E817F90764
:102AD00068F0E881F981028CF38DE02D612F70E0C0
:102AE000CE011995DF91CF911F91089510838B85A9
:102AF0009C8501969C878B87812F90E0F3CFCB013B
:102B000008958F929F92AF92BF92CF92DF92EF92F1
:102B1000FF920F931F93CF93DF938C01EB01490139
:102B20005A01C12CD12C7601C814D904EA04FB0443
:102B30008CF4FE01EC0DFD1D6081C8010E944F1553
:102B4000019631F08FEFC81AD80AE80AF80AECCFDC
:102B500046015701C501B401DF91CF911F910F913B
:102B6000FF90EF90DF90CF90BF90AF909F908F90AD
:102B70000895CF93DF93EC01E881F9810288F3890E
:102B8000E02D19958F3F980731F02D813E812F5F01
:102B90003F4F3E832D83DF91CF9108958FEF9FEFBD
:102BA000089560E070E0CB01089590E080E0089522
:102BB000EF92FF921F93CF93DF937C01EB016F3F66
:102BC000760749F0162F6A3081F0612FF70180896E
:102BD00091890E942206CF3FDC0771F0CE01DF9180
:102BE000CF911F91FF90EF9008956DE0F7018089DC
:102BF00091890E942206E9CFD0E0C0E0EFCF4F924A
:102C00005F926F927F92AF92BF92CF92DF92EF92DC
:102C1000FF920F931F93CF938C015B0129013A011F
:102C2000C12CD12C76010BC06C2FF80180899189C1
:102C30000E942206FFEFCF1ADF0AEF0AFF0AC41430
:102C4000D504E604F7046CF4F501EC0DFD1DC0811C
:102C5000CA3051F76DE0F801808991890E942206FF
:102C6000E3CFC301B201CF911F910F91FF90EF907D
:102C7000DF90CF90BF90AF907F906F905F904F901C
:102C80000895CB010895CF93DF93EC01888999894A
:102C9000DC01ED91FC910084F185E02D1995892BE3
:102CA000A9F388899989DC01ED91FC910284F3856F
:102CB000E02D1995DF91CF910895CF93DF93EC012B
:102CC00088899989DC01ED91FC910084F185E02DE2
:102CD0001995892BA9F388899989DC01ED91FC91DB
:102CE0000484F585E02D1995DF91CF9108958F9299
:102CF0009F92AF92BF92CF92DF92EF92FF920F938B
:102D00001F93CF93DF93EC018B0149015A01C12C32
:102D1000D12C760188899989DC01ED91FC9102849E
:102D2000F385E02D19958F3F79F0C814D904EA0492
:102D3000FB0454F4F801EC0DFD1D8083BFEFCB1AAA
:102D4000DB0AEB0AFB0AE6CFC701B601DF91CF91A0
:102D50001F910F91FF90EF90DF90CF90BF90AF90B9
:102D60009F908F900895DC0150968D919C91DC018D
:102D7000ED91FC910084F185E02D1995089590E086
:102D800080E0089590E080E0089590E080E008956C
:102D900090E080E0089508950895DC01ED91FC91A4
:102DA00036970190F081E02DE80FF91F82E592E05F
:102DB000918380838CE592E0918F808F8CE692E006
:102DC000978386830895FC0182E592E09183808356
:102DD0008CE592E0918F808F8CE692E097838683DA
:102DE0000895FC0180E392E0918380831482138232
:102DF0001682158210861782128611861486138613
:102E000016861586178608952CE632E0FC0131837C
:102E100020830895FB0120813181FC0131832083CF
:102E2000FB014281538126503109F9012081318112
:102E3000820F931FFC015183408308952EE832E0F6
:102E4000FC013183208328E932E0358B248B2CE68A
:102E500032E03383228362E672E00E940A1708950B
:102E6000DC01ED91FC9136970190F081E02DE80FA7
:102E7000F91F8EE892E09183808388E992E0958B38
:102E8000848B8CE692E09383828362E672E0CF01CA
:102E90000E940A1708951F93CF93DF93182FC091B4
:102EA000BD04D091BE048A3041F4E881F9810190DB
:102EB000F081E02D6DE0CE011995E881F981019056
:102EC000F081E02D612FCE01199521E0019731F0BD
:102ED000822F90E0DF91CF911F91089520E0F8CFED
:102EE000CF93DF93C091BD04D091BE04E881F981F6
:102EF0000084F185E02DCE011995892BB9F3E88185
:102F0000F9810284F385E02DCE011995DF91CF91EF
:102F10000895019709F008956F3F7F4FE1F780EB27
:102F200094E00E944C152FEF49E06AE08DE694E0B2
:102F30000E942C1566E18AE594E00E946508EBCFBB
:102F4000EF92FF920F931F93F12CE12C02E310E01C
:102F500024E630E04AE050E06AE070E08DE694E07C
:102F60000E9400121F910F91FF90EF900895089515
:102F700008950895E091560480915504E81730F4BF
:102F8000F0E0EB5CFB4F808190E008958FEF9FEFC6
:102F900008959091560480915504981758F4E92F9C
:102FA000F0E0EB5CFB4F208130E09F5F9093560494
:102FB000C90108952FEF3FEFFBCF80915504909109
:102FC0005604891B990B089581E080933404609323
:102FD0001304109258041092570408950E94E417A5
:102FE0000895FC011382128288EE93E0A0E0B0E025
:102FF00084839583A683B7838EE192E09183808357
:103000000895019709F008956F3F7F4FE1F78AE136
:1030100095E00E94F117F7CF90E080E0089585ECED
:103020008093BC001092ED03089585ED8093BC0061
:103030008091BC0084FDFCCF1092ED0308958111B6
:1030400004C085E88093BC00089585EC8093BC00A3
:1030500008959093C6038093C50308959093CA037F
:103060008093C9030895AC012091C703260F33272D
:10307000331F21323105F4F48091ED038430E1F403
:1030800090E00FC0E091C703292F30E0E20FF32F4B
:10309000F11D240F351FD9012C91EB55FC4F2083D6
:1030A0009F5F961778F38091C703680F6093C703FB
:1030B00080E0089581E0089582E00895CF92DF9244
:1030C000EF92FF920F931F93CF93DF938C016B01CD
:1030D0007A0180913404882399F0D0E0C0E0CE15C5
:1030E000DF0590F4D801ED91FC910190F081E02D85
:1030F000D601AC0FBD1F6C91C80119952196EFCF79
:10310000642FC6010E943318C701DF91CF911F9130
:103110000F91FF90EF90DF90CF900895CF93DF93C2
:103120001F92CDB7DEB7FC016983909134049923D7
:10313000F1F090915704903250F081E090E0938349
:10314000828390E080E00F90DF91CF91089580918D
:103150005804E82FF0E0EC5EFB4F998190838F5F7D
:10316000809358048093570481E090E0ECCF61E0B5
:10317000CE0101960E94331881E090E0E4CF0F93D6
:10318000413208F053C09091ED039111FCCF92E0D1
:103190009093ED030093EF039FEF9093EC03109255
:1031A00011044093100490E00AC0E92FF0E0DB0125
:1031B000AE0FBF1F3C91E051FC4F30839F5F9417CF
:1031C000A0F31092120490E0880F991F90911204BE
:1031D000892B809312048091EE038130B9F085EE43
:1031E0008093BC00222321F08091ED038230D1F343
:1031F0008091EC038F3FE9F08091EC038032D9F0AD
:103200008091EC03803381F084E011C01092EE03D2
:10321000809112048093BB008091BC0083FDF8CFA5
:1032200085EC8093BC00DECF83E001C081E00F918C
:10323000089580E0FCCF82E0FACF0F9340915704CD
:10324000062F21E064E174E0809113040E94BF180E
:103250001092580410925704109234040F9108955C
:1032600061E00E941D190895CF93DF93D62FC42FDC
:1032700068E370E08AE195E00E94EE176D2F8AE125
:1032800095E00E948E186C2F8AE195E00E948E18BE
:103290008AE195E00E943019DF91CF910895413283
:1032A00008F04CC09091ED039111FCCF91E0909308
:1032B000ED032093EF032FEF2093EC031092110402
:1032C000240F209310049093120490E0880F991F0C
:1032D00090911204892B809312048091EE03813027
:1032E00079F085EE8093BC008091ED038130E1F3AD
:1032F00080911104841790F48091110490E01BC018
:103300001092EE03809112048093BB008091BC0068
:1033100083FDF8CF85EC8093BC00E6CF842FEECF01
:10332000292F30E0FB01E20FF31F20513C4FD90160
:103330002C9120839F5F981798F3089580E008955B
:103340008F929F92AF92BF92CF92DF92EF92FF92B5
:103350000F931F93CF93DF93EC01D62EF42E4801E9
:103360005901E1101EC030E23F1518F46894FF24A3
:10337000F5F82C2D4F2D65E374E08D2D0E944F192B
:103380001092560480935504DF91CF911F910F91B5
:10339000FF90EF90DF90CF90BF90AF909F908F9075
:1033A00008950E94E41723E02E1520F40F2EF3E079
:1033B000EF2EF02D1FEF1E0DEE20D9F0E881F981E0
:1033C0000190F081E02D812F90E0880F991F880FE8
:1033D000991F880F991FA501940104C05695479520
:1033E000379527958A95D2F7B901CE011995E12E27
:1033F000E1CF60E0CE010E941D19B5CFCF92EF92D0
:103400000F931F93C22EE12C00E010E098010E9460
:10341000A0191F910F91EF90CF90089521E00E9485
:10342000FE190895CF93DF93EC016A898AE195E054
:103430000E94E417E0911A05F0911B050190F081BC
:10344000E02D64E18AE195E019958AE195E00E941A
:1034500030196A8941E08AE195E00E940E1A8AE1FA
:1034600095E00E94DD17181619063CF061E070E047
:1034700080E090E00E940208F2CF8AE195E00E948D
:10348000C917DF91CF9108950F931F93CF93DF93C7
:103490008C01D62FFC0162898AE195E00E94E41735
:1034A000C0E0CD1750F4F801EC0FF11D60858AE102
:1034B00095E00E948E18CF5FF4CF8AE195E00E94DC
:1034C0003019C4E680E01FC02223B9F08823A9F098
:1034D00061E070E080E090E00E940208C1508AE163
:1034E00095E00E94DD1721E0181619060CF420E083
:1034F00081E0C111E9CF80E0E7CFCC2371F08AE110
:1035000095E00E94C917882344F0F801628941E0E0
:103510008AE195E00E940E1AE2CFDF91CF911F91D0
:103520000F910895CF93DF93EC0180E1888719868E
:1035300062E0CE010E94441A6A8949E08AE195E07E
:103540000E940E1A8AE195E00E94C9178AE195E06F
:103550000E94C917C82F8AE195E00E94C9178AE125
:1035600095E00E94C9178AE195E00E94C9178AE197
:1035700095E00E94C9178AE195E00E94C9178AE187
:1035800095E00E94C9178AE195E00E94C9178C2F27
:10359000DF91CF910895FC0181E380871186128627
:1035A0006387448765E0CF010E94441A0895CF9352
:1035B000DF93EC0180E3888719867A876B8764E064
:1035C000CE010E94441ACE010E94121A81788138DD
:1035D00039F06AE070E080E090E00E940208F3CFEA
:1035E000DF91CF910895FC0182E180871186728777
:1035F00063875487458766E0CF010E94441A089587
:10360000CF93DF93EC0181E0888782E1898780E5B1
:103610008A8763E0CE010E94441A40E050E861E0EE
:1036200072E0CE010E94F31A4CE752E364E071E2CB
:10363000CE010E94F31A41EF5FEF61E072E2CE012A
:103640000E94F31A50E040E062E072E2CE010E9474
:10365000F31A44E050E063E072E2CE010E94F31AF4
:1036600045E050E064E072E2CE010E94F31A50E0BF
:1036700040E066E071E2CE010E94F31A43E050E0C0
:1036800060E072E2CE010E94F31ADF91CF910895BB
:10369000CF93C62F68E370E08AE195E00E94EE17B1
:1036A0006C2F8AE195E00E948E188AE195E00E94D5
:1036B000301941E068E38AE195E00E940E1A8AE140
:1036C00095E00E94C917CF91089562E00E94481BBF
:1036D000833008F080E00895EF92FF920F931F93DC
:1036E000CF93DF93CDB7DEB760970FB6F894DEBF08
:1036F0000FBECDBF7C0168E370E08AE195E00E94D7
:10370000EE1760E08AE195E00E948E188AE195E06C
:103710000E94301940E168E38AE195E00E940E1AA8
:1037200010E0103168F48AE195E00E94C917E1E0E9
:10373000F0E0EC0FFD1FE10FF11D80831F5FF1CF63
:103740008B81F70180838150823008F0108240E045
:10375000423008F048C0242F30E0D901AA0FBB1F27
:10376000CD01820F931F880F991FFC01339601E052
:1037700010E00C0F1D1FE00FF11F60816F70FC0146
:103780003496E00FF11F5081AE0DBF1D762F652FCF
:1037900012967C936E9311970596F801E80FF91F26
:1037A0008081982F9F702F5F3F4FF901EE0FFF1F11
:1037B000E20FF31FEE0FFF1FE00FF11F2081392FE3
:1037C00016963C932E93159790E095958795959531
:1037D000879595958795959587951A969C938E9341
:1037E00019974F5FB5CF60960FB6F894DEBF0FBE46
:1037F000CDBFDF91CF911F910F91FF90EF90089572
:10380000FF920F931F93CF93DF93CDB7DEB76297ED
:103810000FB6F894DEBF0FBECDBF8C01F62E0E940E
:103820006C1BF8018081882319F0F1E0FF1538F551
:1038300030E020E050E040E070E060E0CE0107962C
:103840000E94441586E0FE013796DE011D96019028
:103850000D928A95E1F72D853E854F8558896989B6
:103860007A8980E090E062960FB6F894DEBF0FBED2
:10387000CDBFDF91CF911F910F91FF900895EF2D54
:10388000F0E0EE0FFF1FE00FF11F458156816181CF
:10389000728121E030E0CE0101960E94441586E05D
:1038A000FE013196DE011D9601900D928A95E1F799
:1038B000D2CF1092ED0381E08093EF031092EE03DC
:1038C00061E084E10E94080761E085E10E94080749
:1038D000E9EBF0E080818E7F808380818D7F808323
:1038E00088E48093B80085E48093BC00089510922A
:1038F00056041092550410925804109257040E94D6
:10390000591C87EB97E10E94291888EB97E10E94E8
:103910002E1808951F93CF93DF93EC01162F8AE1A1
:1039200095E00E94771C1A8BCE010E944108CE01BF
:103930000E94001BCE010E94921A8D3029F080E077
:10394000DF91CF911F91089581E0FACF1F93CF931C
:10395000DF93EC01162F8AE195E00E94771C412F3E
:1039600060E8CE010E94341968EACE010E94481B2B
:10397000813129F080E0DF91CF911F91089563EAB2
:10398000CE010E94481B863041F0863341F08436D8
:1039900011F080E0F0CF81E0EECF81E0ECCF81E06C
:1039A000EACFCF93CFB7F8948091A403811123C0BD
:1039B000E4E9F8E08491EAEDF8E09491E82FF0E092
:1039C000EE0FFF1FE55DF74FA591B491EC91E92350
:1039D000D1F061E085E30E943B078CB580618CBD2E
:1039E0008CB580648CBD61E084E30E943B0761E09C
:1039F00083E30E943B078091A4038F5F8093A4031D
:103A0000CFBFCF91089561E085E30E940807E1CF21
:103A1000DF92EF92FF920F931F93CF93DF93CDB777
:103A2000DEB7A1970FB6F894DEBF0FBECDBF7C0105
:103A3000CB01BA01D22E19A221E02D1520F48E015E
:103A40000F5D1F4F0EC00F2EFAE0DF2EF02DF7CFC7
:103A5000E95CD801EE938D01611571058105910531
:103A600079F02D2D30E050E040E00E94C528E62F8F
:103A7000622F732F842F952FEA3054F7E05DE9CF42
:103A80001097F9F0FD0101900020E9F73197AF019F
:103A90004A1B5B0BD701ED91FC910280F381E02D75
:103AA000B801C7011995A1960FB6F894DEBF0FBEF5
:103AB000CDBFDF91CF911F910F91FF90EF90DF90DD
:103AC000089590E080E0EFCF2115310549F4DC0145
:103AD000ED91FC910190F081E02D642F19950895EE
:103AE0000E94081D08959A01AB0170E060E00E94F9
:103AF000641D0895DC01ED91FC910280F381E02DBD
:103B000042E050E06AE373E019950895611571058C
:103B100081F0FB0101900020E9F73197AF01461BCE
:103B2000570BDC01ED91FC910280F381E02D19959A
:103B3000089590E080E008954F925F926F927F9297
:103B4000AF92BF92CF92DF92EF92FF920F931F93AB
:103B5000CF93DF9300D01F921F92CDB7DEB75C01E9
:103B60006A017B012D83AB019601CB01B6010E9456
:103B7000092A811151C026013701E89477F821E024
:103B800029832FEF3FEF4FE75FE7C301B2010E94A8
:103B9000092A81110BC02FEF3FEF4FE75FE7C30109
:103BA000B2010E94772718160CF4198289818823A4
:103BB000D1F12FEF3FEF4FE75FE4C701B6010E945D
:103BC000042A18160CF44AC02FEF3FEF4FE75FECC2
:103BD000C701B6010E94772788230CF446C020E075
:103BE00030E0A901C701B6010E94772788230CF4B1
:103BF00043C0712C612C10E060E070E080E09FE336
:103C00002D81121708F042C020E030E040E251E47C
:103C10000E9463291F5FF4CF6DE373E0C5010E942A
:103C2000861D8C0106C061E473E0C5010E94861DFB
:103C30008C01C8010F900F900F900F900F90DF91A3
:103C4000CF911F910F91FF90EF90DF90CF90BF9099
:103C5000AF907F906F905F904F90089565E473E010
:103C6000C5010E94861D8C01E4CF65E473E0C501A7
:103C70000E94861D8C01DDCF6DE2C5010E942206E7
:103C80003C01F7FAF094F7F8F094B5CF9B01AC0142
:103C9000C701B6010E94F7286B017C010E94D5295B
:103CA00069837A838B839C830E947C279B01AC0170
:103CB000C701B6010E94F6286B017C012AE030E0C2
:103CC00049815A816B817C81C5010E94641D8301F9
:103CD000080F191F8D8181112BC02D81215029833F
:103CE0008D81882309F4A5CF20E030E040E251E443
:103CF000C701B6010E94DD272B013C010E94D52996
:103D00006B014AE050E0C5010E94731D080F191FA6
:103D1000B60190E080E00E947C279B01AC01C301CA
:103D2000B2010E94F6286B017C0129812D83D5CF39
:103D30006EE2C5010E942206080F191FCECF0E9415
:103D40009C1D08950F931F93CF93DF93EC010E9466
:103D5000861D8C01CE010E947A1D800F911FDF917C
:103D6000CF911F910F910895EF92FF920F931F93A0
:103D70000F2EF0EEEF2EF7E0FF2EF02D02E310E015
:103D800022E330E04AE050E06CE370E08DE694E03E
:103D90000E94A10B0F2EFFE1EF2EF12CF02D22E35C
:103DA00030E04AE050E06AE070E08DE694E00E9486
:103DB000A10B0E94A017EDE6F4E080E190E095876A
:103DC000848783E290E0978786878FEF9FEF938BBE
:103DD000828B918B808B61E0CF010E94B90E69E4E8
:103DE00073E08DE694E00E94A21E81E08093590466
:103DF0001F910F91FF90EF900895EF92FF920F9314
:103E00001F930F2EE12CF8EFFF2EF02D02E310E0B0
:103E100022E330E04AE050E06AE070E08DE694E0B2
:103E20000E94A10B0F2EFFE1EF2EF12CF02D22E3CB
:103E300030E04AE050E06CE370E08DE694E00E94F0
:103E4000A10B0E94A017EDE6F4E082E490E09587D4
:103E5000848783E290E0978786878FEF9FEF938B2D
:103E6000828B918B808B61E0CF010E94B90E6DE453
:103E700073E08DE694E00E94A21E109259041F91F7
:103E80000F91FF90EF9008954F925F926F927F9203
:103E9000AF92BF92CF92DF92EF92FF920F931F9358
:103EA000CF93DF9300D000D0CDB7DEB780EB94E0A6
:103EB0000E94651B811115C026960FB6F894DEBFCF
:103EC0000FBECDBFDF91CF911F910F91FF90EF906B
:103ED000DF90CF90BF90AF907F906F905F904F90AA
:103EE000089560E080EB94E00E94001C29833A83EF
:103EF0004B835C8369817A81072E000C880B990BB8
:103F00001F921F921F921F920F2EF0EFAF2EB12C17
:103F1000C12CD12CF02D10EFE12EF12C00E010E09F
:103F200020E030E0A9010E94E1050F900F900F9072
:103F30000F902B016B817C81072E000C880B990B55
:103F40001F921F921F921F92A12CB12C65016894A1
:103F5000A6F8B39410E4E12EFF24F39400E010E0FF
:103F600020E030E0A9010E94E1050F900F900F9032
:103F70000F902091770430917804F901E419F50944
:103F800020915904222371F06B507109613371053E
:103F900008F092CFCF010B97C29708F08DCF0E9407
:103FA000FD1E8ACFAB014D5351094133510508F035
:103FB00083CFCF010B97C29708F07ECF0E94B41E2B
:103FC0007BCF83EA93E00E94441F08950E94E72676
:103FD0000895CF93DF93DC01ED91FC913697C0817A
:103FE000D181C80FD91F8EE892E09983888388E930
:103FF00092E09D8B8C8B8CE692E09B838A8362E6B9
:1040000072E0CE010E940A17CE010E94E61FDF91E6
:10401000CF910895CF93DF93EC018EE892E09983DE
:10402000888388E992E09D8B8C8B8CE692E09B8361
:104030008A8362E672E0CE010E940A17CE010E94D6
:10404000E61FDF91CF910895DC01ED91FC91369749
:104050000190F081E02DE80FF91F82E592E0918355
:1040600080838CE592E0918F808F8CE692E097833D
:104070008683CF010E94E61F089522E532E0FC010D
:10408000318320832CE532E0318F208F2CE632E023
:10409000378326830E94E61F08950E94E61F089535
:1040A0002CE632E0FC01318320830E94E61F089554
:1040B0000E94352ACF92DF92EF92FF921F93CF9307
:1040C000DF93EC016A017B01122FC114D104E104DA
:1040D000F10441F40F2EC12CF2E1DF2EFAE7EF2EAE
:1040E000F12CF02D8FA9882384F461E088AD0E9423
:1040F0003B0761E088AD0E9408078DA9882369F01D
:10410000813009F465C010E07CC061E00E943B078B
:1041100061E08FA90E940807E8CF40E052E16AE71A
:1041200070E0863058F4C416D506E606F70630F47B
:1041300076956795579547958F5FF3CF863009F44D
:1041400045C091E09827412F4C704065292F30E001
:10415000359527952370242B8095817029A38AA3F8
:10416000812F90E0B0E0A0E08BA39CA3ADA3BEA301
:104170000E94D11C8EA988230CF161E00E943B07AC
:1041800061E08EA90E94080764E670E080E090E09C
:104190000E94020860E08EA90E94080764E670E0B1
:1041A00080E090E00E94020861E08EA90E9408076A
:1041B00068EC70E080E090E00E940208DF91CF910F
:1041C0001F91FF90EF90DF90CF90089587E0B9CFD7
:1041D00061E08AA50E943B0760E08AA50E9408076B
:1041E00061E08CA50E943B0760E08CA50E94080757
:1041F0008BA588230CF4BECF60E00E943B07BACFAA
:104200001F5F1634D0F4E12FF0E0E15AF74FE4914C
:10421000F0E0EE0FFF1FEB5BF74F259134918F8D90
:1042200098A12817390761F761E0812F0E943B07A9
:1042300060E0812F0E940807E3CF61E08EA50E9415
:104240003B0761E08EA50E9408078FA588230CF428
:1042500091CF61E00E943B0761E08FA50E940807B3
:1042600089CFCF92DF92EF92FF920F931F93CF935C
:10427000DF937C01411551056105710521F440E092
:1042800052E16AE770E0DE2CCF2C20E0C7010E94EB
:104290005A20F70186A98823F4F0CCEBD7E0CE01B1
:1042A0000196FE016491662321F12296FC0114918E
:1042B000012F0F77202FAE018D2D9C2D0E944709D5
:1042C000C00FD11D11235CF766E970E080E090E03B
:1042D0000E940208E4CF20E050E040E061E0C70126
:1042E0000E94B10966E970E080E090E00E94020857
:1042F000D4CF80EF90E0F7019187808780E491E050
:1043000093878287DF91CF911F910F91FF90EF905C
:10431000DF90CF9008950F931F93CF93DF93EC011D
:104320008B018A819B81009711F00E94E7261983F7
:10433000088360E777E18BE497E10E94E4259B83A3
:104340008A83DF91CF911F910F9108953F924F92F1
:104350005F926F927F928F929F92AF92BF92CF9215
:10436000DF92EF92FF920F931F93CF93DF93EC01B5
:104370008B010197C1F0CD2B21F40F3F1F4F09F4A2
:104380009CC0DF91CF911F910F91FF90EF90DF9034
:10439000CF90BF90AF909F908F907F906F905F90E5
:1043A0004F903F9008956F3F7F4F29F70F2EFFEEFC
:1043B000EF2EF4E0FF2EF02D0F2EF1E2CF2ED12CB8
:1043C000F02DF701D08EC78A118E128E138E0F2E0C
:1043D000F6E08F2E912CA12CB12CF02D848E958E91
:1043E000A68EB78E10A211A212A213A26894332433
:1043F00035F834A216A215A281EF94E090A787A306
:1044000011A68EE892E09183808388E992E0958BF3
:10441000848B81EF94E00E94F1160F2EFCE66F2E44
:10442000F2E07F2EF02DF701738262820F2EF1E30E
:104430004F2EF5E05F2EF02D538A428A80E1818B6A
:104440000F2EF1ECEF2EF4E0FF2EF02DF701D48EBD
:10445000C38E158E168E178E80A291A2A2A2B3A231
:1044600014A215A216A217A230A612A611A687ECB6
:1044700094E094A783A715A6128213821482158252
:1044800082E592E0918380838CE592E0918F808F2A
:1044900087EC94E00E94F116F70177826682578AD2
:1044A000468A88E0858B1092C0041092BF04B20146
:1044B0008DEB94E00E948B215ECFE1ECF4E082E58D
:1044C00092E0918380838CE592E0918F808F8CE6DF
:1044D00092E0978386838FEE94E00E941E1751CF5F
:1044E000CF93DF9300D01F92CDB7DEB71A82198227
:1044F00082E492E29C838B8340E050E0BA018DE637
:1045000094E00E94312168E280EB94E00E94A61CB6
:10451000882309F45AC061E08DE694E00E941D0AE8
:1045200070E060E08DE694E00E94CF12EDE6F4E0EA
:1045300015861486178616868FEF9FEF938B828BD6
:10454000918B808B63E0CF010E94B90E60E573E030
:104550008DE694E00E94A21E61E08DE694E00E9448
:10456000B90E63E68AE594E00E948A1C8823B9F1BB
:104570006BE773E08DE694E00E94861D22E030E058
:1045800046E656E66FEA72E48DE694E00E949F1ECE
:104590006BE973E08DE694E00E94861D8DE694E061
:1045A0000E947A1D40E063E78AE594E00E94CB1AFE
:1045B0006B817C818AE594E00E94D71A0F900F905E
:1045C0000F900F90DF91CF91089564EF71E080E03C
:1045D00090E00E94020881E090E00E943A2A6AE599
:1045E00073E08DE694E00E94A21E64EF71E080E02B
:1045F00090E00E94020882E090E00E943A2A83EA5A
:1046000093E00E94702208956FEF7FEF81E090E0C9
:104610000E945B066FEF7FEF81E090E00E94A62191
:104620006FEF7FEF81E090E00E9489176FEF7FEFDF
:1046300081E090E00E94011808950E947A070E948C
:10464000FF220E94E11F0E94A705FBCF1F920F923D
:104650000FB60F9211240BB60F922F933F934F93E7
:104660005F936F937F938F939F93AF93BF93EF93DA
:10467000FF9381E395E00E940E05FF91EF91BF91BA
:10468000AF919F918F917F916F915F914F913F91EA
:104690002F910F900BBE0F900FBE0F901F9018958B
:1046A0001F920F920FB60F9211240BB60F922F93F9
:1046B0008F939F93AF93BF93EF93FF93E091410547
:1046C000F0914205808182FD14C0E1E3F5E0A68906
:1046D000B7892C91818D8F5F8F73928D891771F0BF
:1046E000DF01E18DF0E0EF5CFA4F258F59968C9356
:1046F00005C0E0914705F09148058081FF91EF9159
:10470000BF91AF919F918F912F910F900BBE0F9002
:104710000FBE0F901F9018951F920F920FB60F9219
:1047200011240F931F932F933F934F935F936F9396
:104730007F938F939F93AF93BF930091290510911F
:104740002A0520912B0530912C0590912805B9015F
:10475000A8014F5F5F4F6F4F7F4F83E0890F8D3709
:1047600040F086E8890FB901A8014E5F5F4F6F4F97
:104770007F4F809328054093290550932A05609325
:104780002B0570932C0580912D0590912E05A091FD
:104790002F05B09130050196A11DB11D80932D0507
:1047A00090932E05A0932F05B0933005BF91AF9144
:1047B0009F918F917F916F915F914F913F912F9139
:1047C0001F910F910F900FBE0F901F9018951F9281
:1047D0000F920FB60F9211240F900FBE0F901F90E3
:1047E00018956FEF7FEF90E080E00E94A62108957A
:1047F0001F920F920FB60F9211240BB60F922F93A8
:104800003F934F935F936F937F938F939F93AF9358
:10481000BF93EF93FF93E091B900E87FE93C08F084
:10482000D7C0F0E08827E85EFB4D8F4F0C941E2A1E
:10483000DF25E824E824E824E824E824E824E82420
:10484000E124E824E824E824E824E824E824E8240F
:10485000E124E824E824E824E824E824E824E824FF
:10486000FB24E824E824E824E824E824E824E824D5
:104870002125E824E824E824E824E824E824E8249E
:10488000FB24E824E824E824E824E824E824E824B5
:104890002725E824E824E824E824E824E824E82478
:1048A0002D25E824E824E824E824E824E824E82462
:1048B0003F25E824E824E824E824E824E824E82440
:1048C0006925E824E824E824E824E824E824E82406
:1048D0003325E824E824E824E824E824E824E8242C
:1048E0004D25E824E824E824E824E824E824E82402
:1048F0006C25E824E824E824E824E824E824E824D3
:104900006C25E824E824E824E824E824E824E824C2
:104910006C25E824E824E824E824E824E824E824B2
:104920006C25E824E824E824E824E824E824E824A2
:104930007525E824E824E824E824E824E824E82489
:10494000A625E824E824E824E824E824E824E82448
:104950007525E824E824E824E824E824E824E82469
:10496000A625E824E824E824E824E824E824E82428
:104970008D25E824E824E824E824E824E824E82431
:10498000AA25E824E824E824E824E824E824E82404
:10499000AA25E824E824E824E824E824E824E824F4
:1049A000BF25E824E824E824E824E824E824E824CF
:1049B000D925E824E824E824E824E824E824E824A5
:1049C000D925809112048093BB0081E00E941F18BA
:1049D000FF91EF91BF91AF919F918F917F916F91D7
:1049E0005F914F913F912F910F900BBE0F900FBE93
:1049F0000F901F90189590911104809110049817B2
:104A000068F08091EF03811119C081E08093EE037B
:104A100084EA8093BC001092ED03DACFE091110498
:104A200081E08E0F80931104F0E0E051FC4F808113
:104A30008093BB0081E00E941F18CACF0E94151806
:104A4000C7CF80E28093EC030E941518C1CF80E3AA
:104A50008093EC030E941518BBCF88E38093EC038E
:104A60000E940F18B5CFE091110481E08E0F809362
:104A70001104F0E08091BB00E051FC4F80839091E5
:104A8000110480911004981720F481E00E941F18EF
:104A90009FCF80E00E941F189BCFE091110481E01E
:104AA0008E0F80931104F0E08091BB00E051FC4F29
:104AB00080838091EF03811109C081E08093EE0330
:104AC00084EA8093BC001092ED0382CF0E941518F7
:104AD0007FCF0E9415187CCF83E08093ED03109266
:104AE000EB0381E00E941F1873CF8091EB038032AB
:104AF00080F4E091EB0381E08E0F8093EB03F0E014
:104B00008091BB00E553FC4F808381E00E941F1819
:104B10005FCF80E00E941F185BCF0E940F1880912A
:104B2000EB03803230F4E091EB03F0E0E553FC4F0F
:104B300010826091EB0370E0E091C903F091CA0329
:104B40008BEC93E019951092EB0342CF80E00E942A
:104B50001F183ECF84E08093ED031092C80310929B
:104B6000C703E091C503F091C60319958091C7036F
:104B7000811105C081E08093C7031092A503E091E5
:104B8000C80381E08E0F8093C803F0E0EB55FC4F23
:104B900080818093BB009091C8038091C7039817D0
:104BA00020F481E00E941F1813CF80E00E941F189C
:104BB0000FCF81E00E941F181092ED0309CF1092D1
:104BC000EC030E94151804CF0F931F93CF93DF932C
:104BD000009759F46115710541F4F0E0E0E0CF0170
:104BE000DF91CF911F910F9108958B01EC016EE041
:104BF00070E081E090E00E942F26FC01892B69F390
:104C000080E883830115110571F01387028781E81D
:104C100083838091CE059091CF05892B21F4F09369
:104C2000CF05E093CE052097D1F2D187C08783814D
:104C3000826083838091D0059091D105892B79F68C
:104C4000F093D105E093D0058091D2059091D305E2
:104C5000892B29F6F093D305E093D205C0CF0F93AB
:104C60001F93CF93DF93869F8001879F100D969FA0
:104C7000100D1124C8010E944B26EC01009729F069
:104C8000A80170E060E00E947027CE01DF91CF9113
:104C90001F910F9108950F931F93CF93DF9382304D
:104CA000910510F482E090E0E091D605F091D705EF
:104CB00030E020E0B0E0A0E0309799F42115310514
:104CC00009F44AC0281B390B24303105D8F58A81F4
:104CD0009B816115710589F1FB0193838283FE013C
:104CE00011C0408151810281138148175907E0F0BA
:104CF0004817590799F4109761F012960C93129780
:104D000013961C933296CF01DF91CF911F910F9193
:104D100008950093D6051093D705F4CF21153105DA
:104D200051F04217530738F0A901DB019A01BD0188
:104D3000DF01F801C1CFEF01F9CF9093D705809340
:104D4000D605CDCFFE01E20FF31F81939193225040
:104D5000310939832883D7CF2091D4053091D505E7
:104D6000232B41F420910202309103023093D505A8
:104D70002093D405209100023091010221153105C4
:104D800041F42DB73EB74091040250910502241B17
:104D9000350BE091D405F091D505E217F307A0F4A7
:104DA0002E1B3F0B2817390778F0AC014E5F5F4F81
:104DB0002417350748F04E0F5F1F5093D5054093D9
:104DC000D405819391939FCFF0E0E0E09CCFCF9307
:104DD000DF930097E9F0FC01329713821282A091D1
:104DE000D605B091D705ED0130E020E01097A1F491
:104DF00020813181820F931F2091D4053091D505F8
:104E00002817390709F061C0F093D505E093D40560
:104E1000DF91CF910895EA01CE17DF07E8F54A81C7
:104E20005B819E0141155105B1F7E901FB83EA83DE
:104E300049915991C40FD51FEC17FD0761F480818A
:104E400091810296840F951FE9019983888382815D
:104E500093819B838A83F0E0E0E012968D919C9190
:104E600013970097B9F52D913C911197CD010296BA
:104E7000820F931F2091D4053091D505281739074B
:104E800039F6309751F51092D7051092D605B093A8
:104E9000D505A093D405BCCFD383C2834081518173
:104EA000840F951FC817D90761F44E5F5F4F888143
:104EB0009981480F591F518340838A819B81938335
:104EC00082832115310509F0B0CFF093D705E09327
:104ED000D6059ECFFD01DC01C0CF13821282D7CF51
:104EE000DC0101C06D9341505040E0F708950E94ED
:104EF000B92708F481E00895E89409C097FB3EF4CF
:104F000090958095709561957F4F8F4F9F4F992316
:104F1000A9F0F92F96E9BB279395F6958795779594
:104F20006795B795F111F8CFFAF4BB0F11F460FF54
:104F30001BC06F5F7F4F8F4F9F4F16C0882311F0AC
:104F400096E911C0772321F09EE8872F762F05C0C0
:104F5000662371F096E8862F70E060E02AF09A955B
:104F6000660F771F881FDAF7880F9695879597F950
:104F70000895990F0008550FAA0BE0E8FEEF1616EA
:104F80001706E807F907C0F012161306E407F5073D
:104F900098F0621B730B840B950B39F40A2661F0B1
:104FA000232B242B252B21F408950A2609F4A14054
:104FB000A6958FEF811D811D08950E94F0270C9406
:104FC00061280E94532838F00E945A2820F0952327
:104FD00011F00C944A280C94502811240C94952814
:104FE0000E94722870F3959FC1F3950F50E0551FF2
:104FF000629FF001729FBB27F00DB11D639FAA272E
:10500000F00DB11DAA1F649F6627B00DA11D661F7C
:10501000829F2227B00DA11D621F739FB00DA11D9D
:10502000621F839FA00D611D221F749F3327A00D57
:10503000611D231F849F600D211D822F762F6A2FF3
:1050400011249F5750409AF0F1F088234AF0EE0F58
:10505000FF1FBB1F661F771F881F91505040A9F785
:105060009E3F510580F00C944A280C9495285F3F90
:10507000E4F3983ED4F3869577956795B795F795C1
:10508000E7959F5FC1F7FE2B880F911D9695879539
:1050900097F9089597F99F6780E870E060E00895B8
:1050A0009FEF80EC089500240A9416161706180640
:1050B0000906089500240A9412161306140605061C
:1050C0000895092E0394000C11F4882352F0BB0FAD
:1050D00040F4BF2B11F460FF04C06F5F7F4F8F4F10
:1050E0009F4F089557FD9058440F551F59F05F3F4B
:1050F00071F04795880F97FB991F61F09F3F79F0FA
:1051000087950895121613061406551FF2CF46957B
:10511000F1DF08C0161617061806991FF1CF8695FD
:105120007105610508940895E894BB2766277727E1
:10513000CB0197F90895052E97FB1EF400940E9469
:10514000B22857FD07D00E94C52807FC03D04EF4B3
:105150000C94B22850954095309521953F4F4F4F74
:105160005F4F089590958095709561957F4F8F4F13
:105170009F4F08950E94E728A59F900DB49F900D22
:10518000A49F800D911D11240895A1E21A2EAA1B3F
:10519000BB1BFD010DC0AA1FBB1FEE1FFF1FA217E7
:1051A000B307E407F50720F0A21BB30BE40BF50BE4
:1051B000661F771F881F991F1A9469F7609570956D
:1051C000809590959B01AC01BD01CF010895A29FF0
:1051D000B001B39FC001A39F700D811D1124911DCB
:1051E000B29F700D811D1124911D08955058BB2749
:1051F000AA270E940E290C9461280E94532838F097
:105200000E945A2820F039F49F3F19F426F40C9498
:1052100050280EF4E095E7FB0C944A28E92F0E94F1
:10522000722858F3BA17620773078407950720F0AE
:1052300079F4A6F50C9494280EF4E0950B2EBA2F71
:10524000A02D0B01B90190010C01CA01A00111248C
:10525000FF27591B99F0593F50F4503E68F11A1638
:10526000F040A22F232F342F4427585FF3CF4695C9
:1052700037952795A795F0405395C9F77EF41F16EB
:10528000BA0B620B730B840BBAF09150A1F0FF0FB5
:10529000BB1F661F771F881FC2F70EC0BA0F621FA1
:1052A000731F841F48F4879577956795B795F79591
:1052B0009E3F08F0B0CF9395880F08F09927EE0F26
:1052C0009795879508950E9477290C9461280E94EC
:1052D0005A2858F00E94532840F029F45F3F29F0E3
:1052E0000C944A2851110C9495280C9450280E9433
:1052F000722868F39923B1F3552391F3951B550B4D
:10530000BB27AA2762177307840738F09F5F5F4F98
:10531000220F331F441FAA1FA9F335D00E2E3AF0D7
:10532000E0E832D091505040E695001CCAF72BD0EF
:10533000FE2F29D0660F771F881FBB1F2617370740
:105340004807AB07B0E809F0BB0B802DBF01FF2772
:1053500093585F4F3AF09E3F510578F00C944A28DD
:105360000C9495285F3FE4F3983ED4F386957795A7
:105370006795B795F7959F5FC9F7880F911D96952B
:10538000879597F90895E1E0660F771F881FBB1F87
:10539000621773078407BA0720F0621B730B840B34
:1053A000BA0BEE1F88F7E09508950E947A2888F0DE
:1053B0009F5798F0B92F9927B751B0F0E1F0660FD9
:1053C000771F881F991F1AF0BA95C9F714C0B1301A
:1053D00091F00E949428B1E008950C949428672FCE
:1053E000782F8827B85F39F0B93FCCF38695779549
:1053F0006795B395D9F73EF4909580957095619532
:105400007F4F8F4F9F4F08950E94B92708F48FEF69
:1054100008950E94B927880B990B0895DB018F939B
:105420009F930E94BA28BF91AF91A29F800D911DBA
:10543000A39F900DB29F900D11240895EE0FFF1FB2
:10544000881F8BBF0790F691E02D19940E94E728E2
:10545000332312F48A1B9B0B0C94302A0E94E728FA
:10546000B7FF0895821B930B089581E090E0F894B4
:105470000C943A2A14E0CAE9D4E000E006C0802F78
:10548000FE010E941E2A2196011DCB39D10780E022
:105490000807A9F7F894FFCF0000D8058000140092
:1054A0000000000000000000ECFFECFF0000000026
:1054B0000000000000008E185E180C18B917DD17E8
:1054C000C917BA1700000000CC164D20CB16C8161D
:1054D000C516C216BF16D515D115CE15B91541166C
:1054E00081157F15180000000000E3163D20E8FF3D
:1054F000E8FF0000CD1624208E020C02160298024E
:105500000000000004175020CB16C816C516C2169E
:10551000BF16B31677165D1643164116FF15D8153C
:105520001400000000001E170A20ECFFECFF000032
:105530003017E91F00000000FE102A060C18431562
:105540005820DB13D313AB13C713BB13DC13AA13FD
:10555000910E900E70133613EC12CF1260120012DF
:1055600000000000FE102A060C184315840A7D0E68
:10557000420EBE0D200D6F0DDC13720E910E660AE9
:10558000360CAB0CA10BCF12601200125820582021
:1055900000000000FE102A060C184315840A7D0E38
:1055A000420EBE0D200D6F0DDC13720E1D0A120A85
:1055B000360CAB0CA10BCF1260120012312109097D
:1055C0000000000030052A06CE047A050105DF043C
:1055D000F3040D0A006E616E00696E66006F7666F8
:1055E000004F4646004F4E0047414D2052616469CE
:1055F0006F00436F756C646E27742066696E64205B
:10560000536934373133207472616E736365697620
:105610006572000A54756E696E6720696E746F203A
:1056200064656661756C74206672657175656E631C
:0A563000792000204D687A0A00007E
:020000040003F7
:10E000000D9489F10D94B2F10D94B2F10D94B2F129
:10E010000D94B2F10D94B2F10D94B2F10D94B2F1F0
:10E020000D94B2F10D94B2F10D94B2F10D94B2F1E0
:10E030000D94B2F10D94B2F10D94B2F10D94B2F1D0
:10E040000D94B2F10D94B2F10D94B2F10D94B2F1C0
:10E050000D94B2F10D94B2F10D94B2F10D94B2F1B0
:10E060000D94B2F10D94B2F10D94B2F10D94B2F1A0
:10E070000D94B2F10D94B2F10D94B2F10D94B2F190
:10E080000D94B2F10D94B2F10D94B2F10D94B2F180
:10E090000D94B2F10D94B2F10D94B2F10D94B2F170
:10E0A0000D94B2F10D94B2F10D94B2F10D94B2F160
:10E0B0000D94B2F10D94B2F10D94B2F10D94B2F150
:10E0C0000D94B2F10D94B2F10D94B2F10D94B2F140
:10E0D0000D94B2F10D94B2F10D94B2F10D94B2F130
:10E0E0000D94B2F141546D656761323536300041AF
:10E0F000726475696E6F206578706C6F72657220DE
:10E1000073746B3530305632206279204D4C530099
:10E11000426F6F746C6F616465723E004875683F52
:10E1200000436F6D70696C6564206F6E203D200048
:10E130004350552054797065202020203D20005FF9
:10E140005F4156525F415243485F5F3D2000415658
:10E1500052204C696243205665723D20004743437C
:10E160002056657273696F6E203D20004350552024
:10E1700049442020202020203D20004C6F7720663D
:10E18000757365202020203D20004869676820665F
:10E190007573652020203D200045787420667573D6
:10E1A00065202020203D20004C6F636B2066757336
:10E1B000652020203D20004D617220203720323024
:10E1C000313300312E362E3800342E332E350056A2
:10E1D00023202020414444522020206F7020636F70
:10E1E00064652020202020696E73747275637469E1
:10E1F0006F6E2061646472202020496E74657272B3
:10E20000757074006E6F20766563746F7200726A49
:10E210006D702020006A6D70200057686174207056
:10E220006F72743A00506F7274206E6F7420737541
:10E2300070706F72746564004D7573742062652030
:10E2400061206C6574746572002000577269747483
:10E25000696E672045450052656164696E672045B7
:10E26000450045452065727220636E743D00504F35
:10E27000525400303D5A65726F2061646472003FF1
:10E280003D43505520737461747300403D454550C3
:10E29000524F4D207465737400423D426C696E6B41
:10E2A000204C454400453D44756D70204545505215
:10E2B0004F4D00463D44756D7020464C415348001B
:10E2C000483D48656C70004C3D4C69737420492F83
:10E2D0004F20506F72747300513D51756974005234
:10E2E0003D44756D702052414D00563D73686F7707
:10E2F00020696E7465727275707420566563746FF0
:10E30000727300593D506F727420626C696E6B00BD
:10E310002A0011241FBECFEFD1E2DEBFCDBF01E046
:10E320000CBF12E0A0E0B2E0EEE1FDEF03E00BBFB6
:10E3300002C007900D92A030B107D9F712E0A0E01B
:10E34000B2E001C01D92AE30B107E1F70F9460F367
:10E350000D948DFE01E20EBF0FEF0DBF11241FBE05
:10E360000D9460F30D9400F020E030E040ED57E0B4
:10E3700005C0FA013197F1F72F5F3F4F2817390792
:10E38000C0F308959C01260F311DC901A0E0B0E043
:10E390002F5F3F4FABBFFC018791882361F08093D3
:10E3A000C6008091C00086FFFCCF8091C0008064D1
:10E3B0008093C000EACF08958DE08093C6008091DD
:10E3C000C00086FFFCCF8091C00080648093C000B5
:10E3D0008AE08093C6008091C00086FFFCCF8091C8
:10E3E000C00080648093C00008950F94C2F10F9420
:10E3F000DCF10895FC019081992359F09093C600B7
:10E400008091C00086FFFCCF8091C0008064809323
:10E41000C0003196992379F70895282F982F929567
:10E420009F70892F805D8A3308F0895F8093C600D2
:10E430008091C00086FFFCCF8091C00080648093F3
:10E44000C000822F8F70982F905D9A3308F0995FEB
:10E450009093C6008091C00086FFFCCF8091C000E1
:10E4600080648093C00008959C01FB01853691056E
:10E470001CF46330710594F0C90164E670E00F94F8
:10E480002EFE605D7F4F6093C6008091C00086FFC6
:10E49000FCCF8091C00080648093C0002B30310598
